:020000040800F2
:1000000000200010F1EB010815EC010819EC0108C3
:100010001DEC010821EC010825EC0108000000009E
:1000200000000000000000000000000029EC0108B2
:100030002DEC01080000000031EC010819EB01086B
:1000400035EC010839EC01083DEC010841EC0108F0
:1000500045EC010849EC01084DEC010851EC0108A0
:1000600055EC010859EC01085DEC010861EC010850
:1000700065EC010869EC01086DEC010871EC010800
:1000800075EC010879EC01087DEC010881EC0108B0
:1000900085EC010889EC01088DEC010891EC010860
:1000A00095EC010899EC01089DEC0108A1EC010810
:1000B00027EB0108A5EC0108A9EC0108ADEC01084B
:1000C000B1EC0108B5EC0108B9EC0108BDEC010880
:1000D000C1EC0108C5EC0108C9EC0108CDEC010830
:1000E000D1EC0108D5EC0108D9EC0108DDEC0108E0
:1000F000E1EC0108E5EC0108E9EC0108EDEC010890
:10010000F1EC0108F5EC0108F9EC0108FDEC01083F
:1001100001ED010805ED010809ED01080DED0108EB
:1001200011ED010815ED010819ED01081DED01089B
:1001300021ED010825ED010829ED01082DED01084B
:1001400031ED010835ED010839ED01082DEB01080D
:100150003DED010841ED010845ED010849ED0108BB
:100160004DED010851ED010855ED010859ED01086B
:100170005DED010861ED010865ED0108000000007A
:1001800069ED01086DED01080000000000000000AD
:1001900000000000000000000000000A0000000055
:1001A000000000000000000000000000000000004F
:1001B000000000000000000000000000000000003F
:1001C000000000000000000000000000000000002F
:1001D000000000000000000400000000000000001B
:1001E000000000000000000000000000000000000F
:1001F00000000000000000000000000000000000FF
:1002000000000000000000000000000000000000EE
:1002100000000004000000000000000000000000DA
:10022000000000000000000000000000008000004E
:1002300000000000000000000000000000000000BE
:100240000000000000000000000000C000000004EA
:10025000000000000000000000000000000000009E
:10026000000000000000000000800000000000000E
:10027000000000000000000000000000000000007E
:1002800000000000000401C00000000400000000A5
:10029000000000000000000000000000000000005E
:1002A00000000006008000000000000000000000C8
:1002B000000000000000000000000000000000003E
:1002C000000601C000000004000000000000000063
:1002D0000000000000000000000000000000000F0F
:1002E00003A000000000000000000000000000006B
:1002F000000000000000000000000000000703C034
:1003000000000004000000000000000000000000E9
:1003100000000000000000000000000F83800000CB
:1003200000000000000000000000000000000000CD
:100330000000000000000000000FDFC0000000040B
:1003400000000000000000000000000000000000AD
:10035000000000000000000FFFC0000000000000CF
:10036000000000000000000000000000000000008D
:1003700000000000000FFF800000000400000000EB
:10038000000000000000000000000000000000006D
:100390000000000FFFC0000000000000000000008F
:1003A000000000000000000000000000000000004D
:1003B0000007FF80000000040000000000000000B3
:1003C0000000000000000000000000000000000B22
:1003D000FFC000000000000000000000000000005E
:1003E0000000000000000000000000000006B880CF
:1003F00000000004000000000000000000000000F9
:1004000000000000000000054000000238800000ED
:1004100000000000000000000000000000000000DC
:1004200000000000001FA0000006B98000000004CA
:1004300000000000000000000000000000000000BC
:100440000000003FE8000023FF0000000000000063
:10045000000000000000000000000000000000009C
:10046000001FF400004FFFA0000000040000000087
:100470000000000000000000000000000000003F3D
:10048000F8000013FF000000000000000000000062
:10049000000000000000000000000000002FFC0031
:1004A0000007FF2000000004000000000000000022
:1004B00000000000000000000000000BFC00000530
:1004C000FE800000000000000000000000000000AE
:1004D00000000000000000000002FF000011FE28E4
:1004E0000000000400000000000000000000000008
:1004F00000000000000000007E000001FC00000081
:1005000000000000000000000000000000000000EB
:100510000000000000001F800000FC00000000043C
:1005200000000000000000000000000000000000CB
:10053000000000001F000001780000000000000023
:1005400000000000000000000000000000000000AB
:1005500000000B800000700000000004000000009C
:10056000000000000000000000000000000000008B
:100570000F800000F80000000000000000000000F4
:1005800000000000000000000000000000000780E4
:1005900000007000000000040000000000000000E7
:1005A00000000000000000000000000007800000C4
:1005B000F00000000000000000000000000000004B
:1005C0000000000000000000000007C00000F00074
:1005D0000000000400000000000000000000000017
:1005E000000000000000000007800001F000000093
:1005F00000000000000000000000000000000000FB
:1006000000000000000003C00001F0000000000432
:1006100000000000000000000000000000000000DA
:100620000000000007800003F00000000000000050
:1006300000000000000000000000000000000000BA
:10064000000003C00003F0000000000400000000F0
:10065000000000000000000000000000000000009A
:100660000780000FF0000000000000000000000004
:1006700000000000000000000000000000000780F3
:10068000000FF8000000000400000000000000005F
:100690000000000000000000000000000B80003F90
:1006A000F00000000000000000000000000000005A
:1006B000000000000000000000000780003FF00084
:1006C0000000000400000000000000000000000026
:1006D00000000000000000000F0000FFF800000014
:1006E000000000000000000000000000000000000A
:1006F0000000000000000F0001FFF00000000004F7
:1007000000000000000000000000000000000000E9
:10071000000000000E0005FFF000000000000000D7
:1007200000000000000000000000000000000000C9
:1007300000001D0003FFF80000000004000000009E
:1007400000000000000000000000000000000000A9
:100750001E000FFFF000000000000000000000007D
:1007600000000000000000000000000000003C004D
:100770001FFFF00000000004000000000000000067
:100780000000000000000000000000003C003FFFEF
:10079000F000000000000000000000000000000069
:1007A0000000000000000000000078007FFFF00063
:1007B0000000000400000000000000000000000035
:1007C0000000000000000000F400FFFFF000000047
:1007D0000000000000000000000000000000000019
:1007E000000000000001F000FFFFE0000000000436
:1007F00000000000000000000000000000000000F9
:1008000000000001E003FFFFF00000000000000016
:1008100000000000000000000000000000000000D8
:100820000007C003FFFFE00000000004000000001C
:1008300000000000000000000000000000000007B1
:100840008007FFFFE0000000000000000000000043
:10085000000000000000000000000000001F000F6A
:10086000FFFFC000000000040000000000000000C6
:1008700000000000000000000000001F001FFFFF3C
:10088000E000000000000000000000000000000088
:100890000000000000000000003E003FFFFFC0001D
:1008A0000000000400000000000000000000000044
:1008B000000000000000007C007FFFFFC00000007F
:1008C0000000000000000000000000000000000028
:1008D0000000000000F800FFFFFF8000000000049F
:1008E0000000000000000000000000000000000008
:1008F000000001F000FFFFFF80000000000000008A
:1009000000000000000000000000000000000000E7
:1009100003E003FFFFFF8000000000040000000070
:10092000000000000000000000000000000007C000
:1009300003FFFFFF80000000000000000000000037
:1009400000000000000000000000000007C007FFDA
:10095000FFFF000000000004000000000000000095
:10096000000000000000000000000F000FFFFFFF6C
:100970000000000000000000000000000000000077
:1009800000000000000000000F001FFFFFFF00003C
:100990000000000400000000000000000000000053
:1009A0000000000000001E001FFFFFFE000000000E
:1009B0000000000000000000000000000000000037
:1009C000000000001C003FFFFFFF000000000004CB
:1009D0000000000000000000000000000000000017
:1009E00000001C007FFFFFFE000000000000000070
:1009F00000000000000000000000000000000000F7
:100A00003800FFFFFFFE00000000000400000000AF
:100A1000000000000000000000000000000038009E
:100A2000FFFFFFFE000000000000000000000000CB
:100A30000000000000000000000000007000FFFF48
:100A4000FFFC0000000000040000000000000000A7
:100A5000000000000000000000003001FFFFFFFE6A
:100A60000000000000000000000000000000000086
:100A700000000000000000002001FFFFFFFC00005C
:100A80000000000400000000000000000000000062
:100A90000000000000007001FFFFFFFC00000000EC
:100AA0000000000000000000000000000000000046
:100AB000000000006003FFFFFFFE000000000004D4
:100AC0000000000000000000000000000000000026
:100AD00000007007FFFFFFFC0000000000000000A6
:100AE0000000000000000000000000000000000006
:100AF0006003FFFFFFFC0000000000040000000096
:100B0000000000000000000000000000000060077E
:100B1000FFFFFFFC000000000000000000000000DC
:100B20000000000000000000000000007007FFFF50
:100B3000FFFC0000000000040000000000000000B6
:100B400000000000000000000000A00FFFFFFFFCFD
:100B50000000000000000000000000000000000095
:100B600000000000000000003007FFFFFFFC000055
:100B70000000000400000000000000000000000071
:100B8000000000000000700FFFFFFFFC00000000ED
:100B90000000000000000000000000000000000055
:100BA00000000000300FFFFFFFFC00000000000409
:100BB0000000000000000000000000000000000035
:100BC0000000300FFFFFFFFC0000000000000000ED
:100BD0000000000000000000000000000000000015
:100BE000381FFFFFDFFC00000000000400000000D1
:100BF0000000000000000000000000000000181FBE
:100C0000FFFFFEFC000000000000000000000000EC
:100C10000000000000000000000000001C3FFFFF7B
:100C2000F8FC0000000000040000000000000000CC
:100C3000000000000000000000000E5FFFFFE07CED
:100C400000000000000000000000000000000000A4
:100C50000000000000000000063FFFFFF0FC000065
:100C60000000000400000000000000000000000080
:100C7000000000000000077FFFFFE07C0000000094
:100C80000000000000000000000000000000000064
:100C900000000000037FFFFFE07C00000000000474
:100CA0000000000000000000000000000000000044
:100CB000000003FFFFFFD07E0000000000000000E6
:100CC0000000000000000000000000000000000024
:100CD00001FFFFFFF03C00000000000400000000E6
:100CE000000000000000000000000000000001FF04
:100CF000FFF7E87E00000000000000000000000098
:100D0000000000002492AAAAAAAAAAAA4AFFFFFFEA
:100D1000F53EAAAAAAAAAAAA0000000000000000A4
:100D20000000000000000000000000FFFFFDF82EA2
:100D300000000000000000000000000000000000B3
:100D40000000000000000000007FFFFCF81F800092
:100D50000000000200000000000000000000000091
:100D6000000000000000003FFFF0FC0D000000004C
:100D700000008000000000000000000000000000F3
:100D800000000000005FFFE03F04000000000000E2
:100D90004000000000000000000000000000000013
:100DA00000000017FF803540000000000000000038
:100DB0000000000000000000000000000000000033
:100DC00000005200000000000000000010000000C1
:100DD0000000000000000000000000000000000013
:100DE0000000000000000000000000000000000003
:100DF00000000000000000000000000000000000F3
:100E000000000000000000000400000000000000DE
:100E100000000000000000000000000000000000D2
:100E200000000000000000000000000000000000C2
:100E300000000000000000000000000000000000B2
:100E400000000000020000000000000000000000A0
:100E50000000000000000000000000000000000092
:100E60000000008000000000000000000000000002
:100E70000000000000000000000000000000000072
:100E80000000000000000000000000000000000062
:100E90000000000000000000000000000000004012
:100EA0000000000000000000000000000000000042
:100EB0000000000000000000000000000000000032
:100EC0000000000000000000000000000000000022
:100ED00000000000000000000000002000000000F2
:100EE0000000000000000000000000000000000002
:100EF00000000000000000000000000000000000F2
:100F000000000000000000000000000000000000E1
:100F100000000000000000080000000000000000C9
:100F200000000000000000000000000000000000C1
:100F300000000000000000000000000000000000B1
:100F400000000000000000000000000000000000A1
:100F5000000000020000000000000000000000008F
:100F60000000000000000000000000000000000081
:100F70000000000000000000000000000000000071
:100F80000000000000000000000000000000000061
:100F900080000000000000000000000000000000D1
:100FA0000000000000000000000000000000000041
:100FB0000000000000000000000000000000000031
:100FC0000000000000000000000000002000000001
:100FD0000000000000000000000000000000000011
:100FE00000000000000000000000100000000000F1
:100FF00000000000000000000000000000000000F1
:1010000000000000000000000000000000000000E0
:1010100000000000000000000000000000000000D0
:1010200000000000000004000000000000000000BC
:1010300000000000000000000000000000000000B0
:1010400000000000000000000000000000000000A0
:101050000000000000000000000000000000000090
:10106000000001000000000000000000000000007F
:101070000000000000000000000000000000000070
:1010800000800000000000000000000000000000E0
:101090000000000000000000000000000000004010
:1010A0000000000000000000000000000000000040
:1010B0000000000000000000000000000020000010
:1010C0000000000000000000000000000000000020
:1010D0000000000000000000000000000000000010
:1010E0000000000000000000000000000000000000
:1010F00000000000000000000010000000000000E0
:1011000000000000000000000000000000000000DF
:1011100000000000000000000000000000000000CF
:1011200000000000000000000000000000000000BF
:1011300000000000000400000000000000000000AB
:10114000000000000000000000000000000000009F
:10115000000000000000000000000000000000008F
:10116000000000000000000000000000000000007F
:10117000000100000000000000000000000000006E
:10118000000000000000000000000000000000005F
:10119000000000000000000000000000000000004F
:1011A00000000000000000000000000000004000FF
:1011B000000000000000000000000000000000002F
:1011C000000000000000000000000000000000001F
:1011D000000000000000000000000000000000000F
:1011E00000000000000000000000100000000000EF
:1011F00000000000000000000000000000000000EF
:1012000000000000000000000000000000000000DE
:1012100000000000000000000000000000000000CE
:1012200000000000000004000000000000000000BA
:1012300000000000000000000000000000000000AE
:10124000000000000000000000000000000000009E
:10125000000000000000000000000000000000008E
:10126000000001000000000000000000000000007D
:10127000000000000000000000000000000000006E
:10128000000000000000000000000000000000005E
:10129000000000000000000000000000000000400E
:1012A000000000000000000000000000000000003E
:1012B000000000000000000000000000000000002E
:1012C000000000000000000000000000000000001E
:1012D00000000000000000000000001000000000FE
:1012E00000000000000000000000000000000000FE
:1012F00000000000000000000000000000000000EE
:1013000000000000000000000000000000000000DD
:1013100000000000000000040000000000000000C9
:1013200000000000000000000000000000000000BD
:1013300000000000000000000000000000000000AD
:10134000000000000000000000000000000000009D
:10135000000000020000000000000000000000008B
:10136000000000000000000000000000000000007D
:10137000000000000000000000000000000000006D
:10138000000000000000000000000000000000005D
:10139000000000000000000000000000000000004D
:1013A00000000000000000000000000000004000FD
:1013B000000000000000000000000000000000002D
:1013C000000000000000000000000000000000001D
:1013D000000000000000000000000000000000000D
:1013E00000000000000000000000100000000000ED
:1013F00000000000000000000000000000000000ED
:1014000000000000000000000000000000000000DC
:1014100000000000000000000000000000000000CC
:1014200000000000000000000000000000000000BC
:1014300000000000000000000000000000000000AC
:10144000000000000000000000000000000000009C
:101450000000000000000000000000040000000088
:10146000000000000000000000000000000000007C
:10147000000000000000000000000000000000006C
:10148000000000000000000000000000000000005C
:101490000000000000000004000000000000000048
:1014A000000000000000000000000000000000003C
:1014B000000000000000000000000000000000002C
:1014C000000000000000000000000000000000001C
:1014D0000000000400000000000000000000000008
:1014E000000000000000000000000000008000007C
:1014F00000000000000000000000000000000000EC
:101500000000000000000000000000800000000457
:1015100000000000000000000000000000000000CB
:10152000000000000000000001400000000000007A
:1015300000000000000000000000000000000000AB
:1015400000000000000400C00000000400000000D3
:10155000000000000000000000000000000000008B
:101560000000000501C000000000000000000000B5
:10157000000000000000000000000000000000006B
:10158000000E0180000000040000000000000000C8
:101590000000000000000000000000000000000744
:1015A00001C000000000000000000000000000007A
:1015B000000000000000000000000000000F03C059
:1015C0000000000400000000000000000000000017
:1015D00000000000000000000000000F87800000F5
:1015E00000000000000000000000000000000000FB
:1015F00000000000000000000007F7C00000000429
:1016000000000000000000000000000000000000DA
:10161000000000000000000FFFC0000000000000FC
:1016200000000000000000000000000000000000BA
:1016300000000000000FFF80000000040000000018
:10164000000000000000000000000000000000009A
:101650000000000FFFC000000000000000000000BC
:10166000000000000000000000000000000000007A
:101670000007FF80000000040000000000000000E0
:101680000000000000000000000000000000000B4F
:10169000FFC000000000000000000000000000008B
:1016A00000000000000000000000000000063900FB
:1016B0000000000400000000000000000000000026
:1016C0000000000000000000000000041080000086
:1016D000000000000000000000000000000000000A
:1016E000000000000000000000027A8000000004FA
:1016F00000000000000000000000000000000000EA
:101700000000000000000027FF8000000000000033
:1017100000000000000000000000000000000000C9
:1017200000000000004BFF5000000004000000001B
:1017300000000000000000000000000000000000A9
:1017400000000017FE800000000000000000000004
:101750000000000000000000000000000000000089
:101760000005FF2000000004000000000000000051
:101770000000000000000000000000000000000366
:10178000FE800000000000000000000000000000DB
:101790000000000000000000000000000029FE28FA
:1017A0000000000400000000000000000000000035
:1017B000000000000000000000000001FC0000002C
:1017C0000000000000000000000000000000000019
:1017D00000000000000000000000FC000000000409
:1017E00000000000000000000000000000000000F9
:1017F0000000000000000001780000000000000070
:1018000000000000000000000000000000000000D8
:101810000000000000007000000000040000000054
:1018200000000000000000000000000000000000B8
:1018300000000000F80000000000000000000000B0
:101840000000000000000000000000000000000098
:101850000000700000000004000000000000000014
:101860000000000000000000000000000000000078
:10187000F000000000000000000000000000000078
:101880000000000000000000000000000000F00068
:101890000000000400000000000000000000000044
:1018A000000000000000000000000001F000000047
:1018B0000000000000000000000000000000000028
:1018C00000000000000000000001F0000000000423
:1018D0000000000000000000000000000000000BFD
:1018E0004000000000000003F000000000000000C5
:1018F000000000000000000000000000003FE000C9
:10190000000000000003F0000000000400000000E0
:1019100000000000000000000000003FFC0000008C
:101920000000000FF00000000000000000000000B8
:101930000000000000000000007FFE00000000002A
:10194000000FF8000000000400000000000000008C
:10195000000000000000007FFF8000000000003F4A
:10196000F000000000000000000000000000000087
:1019700000000000007FFFC000000000003FF000FA
:101980000000000400000000000000000000000053
:101990000000001FFFF00000000000FFF800000042
:1019A0000000000000000000000000000000000037
:1019B00000155FF80000000001FFF00000000004C7
:1019C0000000000000000000000000000000000017
:1019D00023FE0000000003FFF000000000000000F4
:1019E0000000000000000000000000000000057C76
:1019F0000000000007FFF8000000000400000000E5
:101A000000000000000000000000000000BF000017
:101A1000000017FFF00000000000000000000000C0
:101A200000000000000000000000003F80000000F7
:101A30000FFFF000000000040000000000000000A4
:101A40000000000000000000001FC00000003FFF79
:101A5000F000000000000000000000000000000096
:101A6000000000000000000BC00000007FFFF0003D
:101A70000000000400000000000000000000000062
:101A8000000000000007E0000000FFFFF000000081
:101A90000000000000000000000000000000000046
:101AA00000000005F0000000FFFFE000000000045F
:101AB0000000000000000000000000000000000026
:101AC000000170000003FFFFF000000000000000B4
:101AD0000000000000000000000000000000000105
:101AE000F8000003FFFFE000000000040000000019
:101AF000000000000000000000000000000078006E
:101B00000007FFFFE00000000000000000000000F0
:101B1000000000000000000000000000BC00000FFA
:101B2000FFFFE000000000040000000000000000D3
:101B3000000000000000000000003E00001FFFFF4A
:101B4000C0000000000000000000000000000000D5
:101B500000000000000000003E80003FFFFFC000CA
:101B60000000000400000000000000000000000071
:101B70000000000000001E00007FFFFFC00000000A
:101B80000000000000000000000000000000000055
:101B9000000000000F00007FFFFF80000000000435
:101BA0000000000000000000000000000000000035
:101BB0000000070001FFFFFF8000000000000000A0
:101BC0000000000000000000000000000000000015
:101BD0000F0001FFFFFF8000000000040000000074
:101BE0000000000000000000000000000000038072
:101BF00003FFFFFF80000000000000000000000065
:101C0000000000000000000000000000078007FF47
:101C1000FFFF0000000000040000000000000000C2
:101C20000000000000000000000003C00FFFFFFFE5
:101C300000000000000000000000000000000000A4
:101C4000000000000000000001A01FFFFFFF0000D7
:101C50000000000400000000000000000000000080
:101C600000000000000003C03FFFFFFE0000000076
:101C70000000000000000000000000000000000064
:101C80000000000001C03FFFFFFF00000000000453
:101C90000000000000000000000000000000000044
:101CA000000000C07FFFFFFE0000000000000000F9
:101CB0000000000000000000000000000000000024
:101CC00001E07FFFFFFE00000000000400000000B4
:101CD000000000000000000000000000000000C044
:101CE000FFFFFFFE000000000000000000000000F9
:101CF00000000000000000000000000000E0FFFF06
:101D0000FFFC0000000000040000000000000000D4
:101D10000000000000000000000000D1FFFFFFFEF7
:101D200000000000000000000000000000000000B3
:101D3000000000000000000000E1FFFFFFFC0000C9
:101D4000000000040000000000000000000000008F
:101D50000000000000000063FFFFFFFE0000000025
:101D60000000000000000000000000000000000073
:101D70000000000000B3FFFFFFFC000000000004B3
:101D80000000000000000000000000000000000053
:101D900000000063FFFFFFFC0000000000000000E7
:101DA0000000000000000000000000000000000033
:101DB0000063FFFFFFFC00000000000400000000C3
:101DC000000000000000000000000000000000779C
:101DD000FFFFFFFC0000000000000000000000000A
:101DE0000000000000000000000000000067FFFF8E
:101DF000FFFC0000000000040000000000000000E4
:101E000000000000000000000000006FFFFFFFFC6A
:101E100000000000000000000000000000000000C2
:101E200000000000000000000057FFFFFFFC000062
:101E3000000000040000000000000000000000009E
:101E40000000000000000077FFFFFFFC0000000022
:101E50000000000000000000000000000000000082
:101E600000000000002FFFFFFFFC00000000000446
:101E70000000000000000000000000000000000062
:101E80000000007FFFFFFFFC0000000000000000DA
:101E90000000000000000000000000000000000042
:101EA000003FFFFFFFFC00000000000400000000F6
:101EB0000000000000000000000000000000007FA3
:101EC000FFFFFCFC0000000000000000000000001C
:101ED000000000000000000000000000003FFFFFC5
:101EE000F4FC0000000000040000000000000000FE
:101EF00000000000000000000000007FFFFFF0FC79
:101F000000000000000000000000000000000000D1
:101F10000000000000000000003FFFFFE0FC0000A8
:101F200000000004000000000000000000000000AD
:101F3000000000000000007FFFFFD07C00000000D8
:101F40000000000000000000000000000000000091
:101F500000000000007FFFFFF07C00000000000494
:101F60000000000000000000000000000000000071
:101F70000000007FFFFFE07E000000000000000086
:101F80000000000000000000000000000000000051
:101F900000FFFFFFD03C0000000000040000000034
:101FA000000000000000000000000000000000FF32
:101FB000FFF7F07E000000000000000000000000BD
:101FC000000000002492AAAAAAAAAAAAAAFFFFFFB8
:101FD000F53EAAAAAAAAAAAA0000000000000000D2
:101FE0000000000000000000000000FFFFFDF82ED0
:101FF00000000000000000000000000000000000E1
:102000000000000000000000007FFFFCF81F8000BF
:1020100000000002000000000000000000000000BE
:10202000000000000000003FFFF0FC0D2000000059
:102030000000800000000000000000000000000020
:1020400000000000005FFFE03F040000000000000F
:102050004000000000000000000000000000000040
:1020600000000017FF803540000000000000000065
:102070000000000000000000000000000000000060
:1020800000005200000000000000000010000000EE
:102090000000000000000000000000000000000040
:1020A0000000000000000000000000000000000030
:1020B0000000000000000000000000000000000020
:1020C000000000000000000004000000000000000C
:1020D0000000000000000000000000000000000000
:1020E00000000000000000000000000000000000F0
:1020F00000000000000000000000000000000000E0
:1021000000000000020000000000000000000000CD
:1021100000000000000000000000000000000000BF
:10212000000000800000000000000000000000002F
:10213000000000000000000000000000000000009F
:10214000000000000000000000000000000000008F
:10215000000000000000000000000000000002403D
:10216000000000000000000000000000000000006F
:10217000000000000000000000000000000000005F
:10218000000000000000000000000000000000004F
:10219000000000000000000000000020000000001F
:1021A000000000000000000000000000000000002F
:1021B000000000000000000000000000000000001F
:1021C000000000000000000000000000000000000F
:1021D00000000000000000080000000000000000F7
:1021E00000000000000000000000000000000000EF
:1021F00000000000000000000000000000000000DF
:1022000000000000000000000000000000000000CE
:1022100000000002000000000000000000000000BC
:1022200000000000000000000000000000000000AE
:10223000000000000000000000000000000000009E
:10224000000000000000000000000000000000008E
:1022500080000000000000000000000000000000FE
:10226000000000000000000000000000000000006E
:10227000000000000000000000000000000000005E
:10228000000000000000000000000000200000002E
:10229000000000000000000000000000000000003E
:1022A000000000000000000000001000000000001E
:1022B000000000000000000000000000000000001E
:1022C000000000000000000000000000000000000E
:1022D00000000000000000000000000000000000FE
:1022E00000000000000004000000000000000000EA
:1022F00000000000000000000000000000000000DE
:1023000000000000000000000000000000000000CD
:1023100000000000000000000000000000000000BD
:1023200000000100000000000000000000000000AC
:10233000000000000000000000000000000000009D
:10234000008000000000000000000000000000000D
:10235000000000000000000000000000000000403D
:10236000000000000000000000000000000000006D
:10237000000000000000000000000000002000003D
:10238000000000000000000000000000000000004D
:10239000000000000000000000000000000000003D
:1023A000000000000000000000000000000000002D
:1023B000000000000000000000100000000000000D
:1023C000000000000000000000000000000000000D
:1023D00000000000000000000000000000000000FD
:1023E00000000000000000000000000000000000ED
:1023F00000000000000400000000000000000000D9
:1024000000000000000000000000000000000000CC
:1024100000000000000000000000000000000000BC
:1024200000000000000000000000000000000000AC
:10243000000100000000000000000000000000009B
:10244000000000000000000000000000000000008C
:10245000000000000000000000000000000000007C
:10246000000000000000000000000000000040002C
:10247000000000000000000000000000000000005C
:10248000000000000000000000000000000000004C
:10249000000000000000000000000000000000003C
:1024A000000000000000000000001000000000001C
:1024B000000000000000000000000000000000001C
:1024C000000000000000000000000000000000000C
:1024D00000000000000000000000000000000000FC
:1024E00000000000000004000000000000000000E8
:1024F00000000000000000000000000000000000DC
:1025000000000000000000000000000000000000CB
:1025100000000000000000000000000000000000BB
:1025200000000100000000000000000000000000AA
:10253000000000000000000000000000000000009B
:10254000000000000000000000000000000000008B
:10255000000000000000000000000000000000403B
:10256000000000000000000000000000000000006B
:10257000000000000000000000000000000000005B
:10258000000000000000000000000000000000004B
:10259000000000000000000000000010000000002B
:1025A000000000000000000000000000000000002B
:1025B000000000000000000000000000000000001B
:1025C000000000000000000000000000000000000B
:1025D00000000000000000040000000000000000F7
:1025E00000000000000000000000000000000000EB
:1025F00000000000000000000000000000000000DB
:1026000000000000000000000000000000000000CA
:1026100000000002000000000000000000000000B8
:1026200000000000000000000000000000000000AA
:10263000000000000000000000000000000000009A
:10264000000000000000000000000000000000008A
:10265000000000000000000000000000000000007A
:10266000000000000000000000000000000040002A
:10267000000000000000000000000000000000005A
:10268000000000000000000000000000000000004A
:10269000000000000000000000000000000000003A
:1026A000000000000000000000001000000000001A
:1026B000000000000000000000000000000000001A
:1026C000000000000000000000000000000000000A
:1026D00000000000000000000000000000000000FA
:1026E00000000000000000000000000000000000EA
:1026F00000000000000000000000000000000000DA
:1027000000000000000000000000000000000000C9
:1027100000000000000000000000000400000000B5
:1027200000000000000000000000000000000000A9
:102730000000000000000000000000000000000099
:102740000000000000000000000000000000000089
:102750000000000000000004000000000000000075
:102760000000000000000000000000000000000069
:102770000000000000000000000000000000000059
:102780000000000000000000000000000000000049
:102790000000000400000000000000000000000035
:1027A00000000000000000000000000000800000A9
:1027B0000000000000000000000000000000000019
:1027C0000000000000000000000000800000000485
:1027D00000000000000000000000000000000000F9
:1027E00000000000000000000140000000000000A8
:1027F00000000000000000000000000000000000D9
:1028000000000000000400C0000000040000000000
:1028100000000000000000000000000000000000B8
:102820000000000E01C000000000000000000000D9
:102830000000000000000000000000000000000098
:1028400000060180000000040000000000000000FD
:102850000000000000000000000000000000000F69
:1028600001C00000000000000000000000000000A7
:10287000000000000000000000000000000703C08E
:102880000000000400000000000000000000000044
:1028900000000000000000000000000F8380000026
:1028A0000000000000000000000000000000000028
:1028B0000000000000000000000FFFC00000000446
:1028C0000000000000000000000000000000000008
:1028D000000000000000000FFFC00000000000002A
:1028E00000000000000000000000000000000000E8
:1028F00000000000000FFF80000000040000000046
:1029000000000000000000000000000000000000C7
:102910000000000FFFC000000000000000000000E9
:1029200000000000000000000000000000000000A7
:102930000007FF800000000400000000000000000D
:102940000000000000000000000000000000000B7C
:10295000FFC00000000000000000000000000000B8
:102960000000000000000000000000000006390028
:102970000000000400000000000000000000000053
:1029800000000000000000000000000410800000B3
:102990000000000000000000000000000000000037
:1029A000000000000000000000027A800000000427
:1029B0000000000000000000000000000000000017
:1029C0000000000000000027FF8000000000000061
:1029D00000000000000000000000000000000000F7
:1029E00000000000004BFF50000000040000000049
:1029F00000000000000000000000000000000000D7
:102A000000000015FE800000000000000000000033
:102A100000000000000000000000000000000000B6
:102A20000007FF200000000400000000000000007C
:102A30000000000000000000000000000000000591
:102A4000FE80000000000000000000000000000008
:102A50000000000000000000000000000011FE283F
:102A60000000000400000000000000000000000062
:102A7000000000000000000000000001FC00000059
:102A80000000000000000000000000000000000046
:102A900000000000000000000000FC000000000436
:102AA0000000000000000000000000000000000026
:102AB000000000000000000178000000000000009D
:102AC0000000000000000000000000000000000006
:102AD0000000000000007000000000040000000082
:102AE00000000000000000000000000000000000E6
:102AF00000000000F80000000000000000000000DE
:102B000000000000000000000000000000000000C5
:102B10000000700000000004000000000000000041
:102B200000000000000000000000000000000000A5
:102B3000F0000000000000000000000000000000A5
:102B40000000000000000000000000000000F00095
:102B50000000000400000000000000000000000071
:102B6000000000000000000000000001F000000074
:102B70000000000000000000000000000000000055
:102B800000000000000000000001F0000000000450
:102B90000000000000000000000000000000000035
:102BA0000000000000000003F00000000000000032
:102BB0000000000000000000000000000000000015
:102BC000000000000003F00000000004000000000E
:102BD00000000000000000000000000000000000F5
:102BE0000000000FF00000000000000000000000E6
:102BF00000000000000000000000000000000000D5
:102C0000000FF800000000040000000000000000B9
:102C10000000000000000000000000000000003F75
:102C2000F0000000000000000000000000000000B4
:102C3000000000000000000000000000003FF00065
:102C40000000000400000000000000000000000080
:102C50000000000000000000000000FFF80000007D
:102C60000000000000000000000000000000000064
:102C7000000000000000000001FFF0000000000460
:102C80000000000000000000000000000000000044
:102C900000000000000003FFF00000000000000042
:102CA0000000000000000000000000000000000024
:102CB0000000000007FFF800000000040000000012
:102CC0000000000000000000000000000000000004
:102CD00000000FFFF00000000000000000000000F6
:102CE00000000000000000000000000000000000E4
:102CF0002FFFF000000000040000000000000000B2
:102D000000000000000000000000000000001FFFA5
:102D1000F0000000000000000000000000000000C3
:102D20000000000000000000000000007FFFF00035
:102D3000000000040000000000000000000000008F
:102D400000000000000000000000FFFFF000000095
:102D50000000000000000000000000000000000073
:102D60000000000000000000FFFFE0000000000481
:102D70000000000000000000000000000000000053
:102D8000000000000003FFFFF00000000000000052
:102D90000000000000000000000000000000000033
:102DA00000000003FFFFE00000000004000000003E
:102DB0000000000000000000000000000000000013
:102DC0000007FFFFE000000000000000000000001E
:102DD0000000000000000000000000000000000FE4
:102DE000FFFFE00000000004000000000000000001
:102DF000000000000000000000000000001FFFFFB6
:102E0000C000000000000000000000000000000002
:102E100000000000000000000000003FFFFFC000B5
:102E2000000000040000000000000000000000009E
:102E30000000000000000000007FFFFFC000000055
:102E40000000000000000000000000000000000082
:102E500000000000000000FFFFFF800000000004F1
:102E60000000000000000000000000000000000062
:102E70000000000000FFFFFF8000000000000000D5
:102E80000000000000000000000000000000000042
:102E9000000003FFFFFF80000000000400000000AE
:102EA0000000000000000000000000000000000022
:102EB00003FFFFFF80000000000000000000000092
:102EC000000000000000000000000000000007FFFC
:102ED000FFFF0000000000040000000000000000F0
:102EE0000000000000000000000000000FFFFFFFD6
:102EF00000000000000000000000000000000000D2
:102F0000000000000000000000001FFFFFFF0000A5
:102F100000000004000000000000000000000000AD
:102F200000000000000000001FFFFFFE0000000086
:102F30000000000000000000000000000000000091
:102F40000000000000003FFFFFFF00000000000441
:102F50000000000000000000000000000000000071
:102F6000000000007FFFFFFE0000000000000000E6
:102F70000000000000000000000000000000000051
:102F80000000FFFFFFFE0000000000040000000042
:102F90000000000000000000000000000000000031
:102FA000FFFFFFFE00000000000000000000000026
:102FB0000000000000000000000000000000FFFF13
:102FC000FFFC000000000004000000000000000002
:102FD000000000000000000000000001FFFFFFFEF5
:102FE00000000000000000000000000000000000E1
:102FF00000000000000000000001FFFFFFFC0000D7
:1030000000000004000000000000000000000000BC
:103010000000000000000001FFFFFFFE00000000B4
:1030200000000000000000000000000000000000A0
:10303000000000000003FFFFFFFC00000000000490
:103040000000000000000000000000000000000080
:1030500000000007FFFFFFFC000000000000000070
:103060000000000000000000000000000000000060
:103070000003FFFFFFFC0000000000040000000050
:103080000000000000000000000000000000000739
:10309000FFFFFFFC00000000000000000000000037
:1030A0000000000000000000000000000007FFFF1B
:1030B000FFFC000000000004000000000000000011
:1030C00000000000000000000000000FFFFFFFFCF8
:1030D00000000000000000000000000000000000F0
:1030E00000000000002000000007FFFFFFFC0000C0
:1030F00000000004000000000000000000000000CC
:103100000000AA800000000FFFFFFFFC000000008D
:103110000000000000000000000000000000002F80
:10312000FFFD0000000FFFFFFFFC00000000000497
:1031300000000000000000000000000001FFFFFF91
:10314000C200000FFFFFFFFC0000000000000000B5
:10315000000000000000000000000FFFFFFFF8006B
:10316000001FFFFFFFFC0000000000040000000043
:1031700000000000000000007FFFFFFFFF80001F35
:10318000FFFFFCFC00000000000000000000000049
:10319000000000000001FFFEA0011FE8003FFFFF4C
:1031A000F4FC00000000000400000000000000002B
:1031B00000000007FFD0000024FA003FFFFFF0FCF2
:1031C00000000000000000000000000000000000FF
:1031D000000FFD000000015F403FFFFFE0FC00002A
:1031E0000000000400000000000000000000001FBC
:1031F000F40000000017E87FFFFFD07C0000000013
:10320000000000000000000000000000003FE0009F
:10321000000000017A7FFFFFF07C00000000000446
:1032200000000000000000000000003F80000000DF
:1032300000005EBFFFFFE07E000000000000000015
:103240000000000000000000007E80000000000080
:1032500017FFFFFFD03C000000000004000000004A
:10326000000000000000007D00000000000003FFDF
:10327000FFF7F07E000000000000000000000000EA
:10328000000000002ABEAAAAAAAAAAAAAAFFFFFFB3
:10329000F53EAAAAAAAAAAAA0000000000000000FF
:1032A0000000001000000000000000FFFFFDF82EED
:1032B000000000000000000000000000000000000E
:1032C0000000000000000000007FFFFCF81F8000ED
:1032D00000000002000000000000000000000000EC
:1032E000000000000000003FFFF0FC0D00000000A7
:1032F000000080000000000000000000000000004E
:1033000000000000005FFFE03F040000000000003C
:10331000400000000000000000000000000000006D
:1033200000000017FF803540000000000000000092
:10333000000000000000000000000000000000008D
:10334000000052000000000000000000100000001B
:10335000000000000000000000000000000000006D
:10336000000000000000000000000000000000005D
:10337000000000000000000000000000000000004D
:103380000000000000000000040000000000000039
:10339000000000000000000000000000000000002D
:1033A000000000000000000000000000000000001D
:1033B000000000000000000000000000000000000D
:1033C00000000000020000000000000000000000FB
:1033D00000000000000000000000000000000000ED
:1033E000000000800000000000000000000000005D
:1033F00000000000000000000000000000000000CD
:1034000000000000000000000000000000000000BC
:10341000000000000000000000000000000000406C
:10342000000000000000000000000000000000009C
:10343000000000000000000000000000000000008C
:10344000000000000000000000000000000000007C
:10345000000000000000000000000020000000004C
:10346000000000000000000000000000000000005C
:10347000000000000000000000000000000000004C
:10348000000000000000000000000000000000003C
:103490000000000000000008000000000000000024
:1034A000000000000000000000000000000000001C
:1034B000000000000000000000000000000000000C
:1034C00000000000000000000000000000000000FC
:1034D00000000002000000000000000000000000EA
:1034E00000000000000000000000000000000000DC
:1034F00000000000000000000000000000000000CC
:1035000000000000000000000000000000000000BB
:10351000800000000000000000000000000000002B
:10352000000000000000000000000000000000009B
:10353000000000000000000000000000000000008B
:10354000000000000000000000000000200000005B
:10355000000000000000000000000000000000006B
:10356000000000000000000000001000000000004B
:10357000000000000000000000000000000000004B
:10358000000000000000000000000000000000003B
:10359000000000000000000000000000000000002B
:1035A0000000000000000400000000000000000017
:1035B000000000000000000000000000000000000B
:1035C00000000000000000000000000000000000FB
:1035D00000000000000000000000000000000000EB
:1035E00000000100000000000000000000000000DA
:1035F00000000000000000000000000000000000CB
:10360000008000000000000000000000000000003A
:10361000000000000000000000000000000000406A
:10362000000000000000000000000000000000009A
:10363000000000000000000000000000002000006A
:10364000000000000000000000000000000000007A
:10365000000000000000000000000000000000006A
:10366000000000000000000000000000000000005A
:10367000000000000000000000100000000000003A
:10368000000000000000000000000000000000003A
:10369000000000000000000000000000000000002A
:1036A000000000000000000000000000000000001A
:1036B0000000000000040000000000000000000006
:1036C00000000000000000000000000000000000FA
:1036D00000000000000000000000000000000000EA
:1036E00000000000000000000000000000000000DA
:1036F00000010000000000000000000000000000C9
:1037000000000000000000000000000000000000B9
:1037100000000000000000000000000000000000A9
:103720000000000000000000000000000000400059
:103730000000000000000000000000000000000089
:103740000000000000000000000000000000000079
:103750000000000000000000000000000000000069
:103760000000000000000000000010000000000049
:103770000000000000000000000000000000000049
:103780000000000000000000000000000000000039
:103790000000000000000000000000000000000029
:1037A0000000000000000400000000000000000015
:1037B0000000000000000000000000000000000009
:1037C00000000000000000000000000000000000F9
:1037D00000000000000000000000000000000000E9
:1037E00000000100000000000000000000000000D8
:1037F00000000000000000000000000000000000C9
:1038000000000000000000000000000000000000B8
:103810000000000000000000000000000000004068
:103820000000000000000000000000000000000098
:103830000000000000000000000000000000000088
:103840000000000000000000000000000000000078
:103850000000000000000000000000100000000058
:103860000000000000000000000000000000000058
:103870000000000000000000000000000000000048
:103880000000000000000000000000000000000038
:103890000000000000000004000000000000000024
:1038A0000000000000000000000000000000000018
:1038B0000000000000000000000000000000000008
:1038C00000000000000000000000000000000000F8
:1038D00000000002000000000000000000000000E6
:1038E00000000000000000000000000000000000D8
:1038F00000000000000000000000000000000000C8
:1039000000000000000000000000000000000000B7
:1039100000000000000000000000000000000000A7
:103920000000000000000000000000000000400057
:103930000000000000000000000000000000000087
:103940000000000000000000000000000000000077
:103950000000000000000000000000000000000067
:103960000000000000000000000010000000000047
:103970000000000000000000000000000000000047
:103980000000000000000000000000000000000037
:103990000000000000000000000000000000000027
:1039A0000000000000000000000000000000000017
:1039B0000000000000000000000000000000000007
:1039C00000000000000000000000000000000000F7
:1039D00000000000000000000000000400000000E3
:1039E00000000000000000000000000000000000D7
:1039F00000000000000000000000000000000000C7
:103A000000000000000000000000000000000000B6
:103A100000000000000000040000000000000000A2
:103A20000000000000000000000000000000000096
:103A30000000000000000000000000000000000086
:103A40000000000000000000000000000000000076
:103A50000000000400000000000000000000000062
:103A600000000000000000000000000000800000D6
:103A70000000000000000000000000000000000046
:103A800000000000000000000000008000000004B2
:103A90000000000000000000000000000000000026
:103AA00000000000000000000140000000000000D5
:103AB0000000000000000000000000000000000006
:103AC00000000000000400C000000004000000002E
:103AD00000000000000000000000000000000000E6
:103AE0000000000501C00000000000000000000010
:103AF00000000000000000000000000000000000C6
:103B0000000E018000000004000000000000000022
:103B1000000000000000000000000000000000079E
:103B200001C00000000000000000000000000000D4
:103B3000000000000000000000000000000F03C0B3
:103B40000000000400000000000000000000000071
:103B500000000000000000000000000F878000004F
:103B60000000000000000000000000000000000055
:103B700000000000000000000007F7C00000000483
:103B80000000000000000000000000000000000035
:103B9000000000000000000FFFC000000000000057
:103BA0000000000000000000000000000000000015
:103BB00000000000000FFF80000000040000000073
:103BC00000000000000000000000000000000000F5
:103BD0000000000FFFC00000000000000000000017
:103BE00000000000000000000000000000000000D5
:103BF0000007FF800000000400000000000000003B
:103C00000000000000000000000000000000000BA9
:103C1000FFC00000000000000000000000000000E5
:103C20000000000000000000000000000006390055
:103C30000000000400000000000000000000000080
:103C400000000000000000000000000410800000E0
:103C50000000000000000000000000000000000064
:103C6000000000000000000000027A800000000454
:103C70000000000000000000000000000000000044
:103C80000000000000000027FF800000000000008E
:103C90000000000000000000000000000000000024
:103CA00000000000004BFF50000000040000000076
:103CB0000000000000000000000000000000000004
:103CC00000000017FE80000000000000000000005F
:103CD00000000000000000000000000000000000E4
:103CE0000005FF20000000040000000000000000AC
:103CF00000000000000000000000000000000003C1
:103D0000FE80000000000000000000000000000035
:103D10000000000000000000000000000029FE2854
:103D2000000000040000000000000000000000008F
:103D3000000000000000000000000001FC00000086
:103D40000000000000000000000000000000000073
:103D500000000000000000000000FC000000000463
:103D60000000000000000000000000000000000053
:103D700000000000000000017800000000000000CA
:103D80000000000000000000000000000000000033
:103D900000000000000070000000000400000000AF
:103DA0000000000000000000000000000000000013
:103DB00000000000F800000000000000000000000B
:103DC00000000000000000000000000000000000F3
:103DD000000070000000000400000000000000006F
:103DE00000000000000000000000000000000000D3
:103DF000F0000000000000000000000000000000D3
:103E00000000000000000000000000000000F000C2
:103E1000000000040000000000000000000000009E
:103E2000000000000000000000000001F0000000A1
:103E30000000000000000000000000000000000082
:103E400000000000000000000001F000000000047D
:103E50000000000000000000000000000000000B57
:103E60004000000000000003F0000000000000001F
:103E7000000000000000000000000000003FE00023
:103E8000000000000003F00000000004000000003B
:103E900000000000000000000000003FFC000000E7
:103EA0000000000FF0000000000000000000000013
:103EB0000000000000000000007FFE000000000085
:103EC000000FF800000000040000000000000000E7
:103ED000000000000000007FFF8000000000003FA5
:103EE000F0000000000000000000000000000000E2
:103EF00000000000007FFFC000000000003FF00055
:103F000000000004000000000000000000000000AD
:103F10000000001FFFF00000000000FFF80000009C
:103F20000000000000000000000000000000000091
:103F300000155FF80000000001FFF0000000000421
:103F40000000000000000000000000000000000071
:103F500023FE0000000003FFF0000000000000004E
:103F60000000000000000000000000000000057CD0
:103F70000000000007FFF80000000004000000003F
:103F800000000000000000000000000000BF000072
:103F9000000017FFF000000000000000000000001B
:103FA00000000000000000000000003F8000000052
:103FB0000FFFF000000000040000000000000000FF
:103FC0000000000000000000001FC00000003FFFD4
:103FD000F0000000000000000000000000000000F1
:103FE000000000000000000BC00000007FFFF00098
:103FF00000000004000000000000000000000000BD
:10400000000000000007E0000000FFFFF0000000DB
:1040100000000000000000000000000000000000A0
:1040200000000005F0000000FFFFE00000000004B9
:104030000000000000000000000000000000000080
:10404000000170000003FFFFF0000000000000000E
:10405000000000000000000000000000000000015F
:10406000F8000003FFFFE000000000040000000073
:1040700000000000000000000000000000007800C8
:104080000007FFFFE000000000000000000000004B
:10409000000000000000000000000000BC00000F55
:1040A000FFFFE0000000000400000000000000002E
:1040B000000000000000000000003E00001FFFFFA5
:1040C000C000000000000000000000000000000030
:1040D00000000000000000003E80003FFFFFC00025
:1040E00000000004000000000000000000000000CC
:1040F0000000000000001E00007FFFFFC000000065
:1041000000000000000000000000000000000000AF
:10411000000000000F00007FFFFF8000000000048F
:10412000000000000000000000000000000000008F
:104130000000070001FFFFFF8000000000000000FA
:10414000000000000000000000000000000000006F
:104150000F0001FFFFFF80000000000400000000CE
:1041600000000000000000000000000000000380CC
:1041700003FFFFFF800000000000000000000000BF
:10418000000000000000000000000000078007FFA2
:10419000FFFF00000000000400000000000000001D
:1041A0000000000000000000000003C00FFFFFFF40
:1041B00000000000000000000000000000000000FF
:1041C000000000000000000001A01FFFFFFF000032
:1041D00000000004000000000000000000000000DB
:1041E00000000000000003C03FFFFFFE00000000D1
:1041F00000000000000000000000000000000000BF
:104200000000000001C03FFFFFFF000000000004AD
:10421000000000000000000000000000000000009E
:10422000000000C07FFFFFFE000000000000000053
:10423000000000000000000000000000000000007E
:1042400001E07FFFFFFE000000000004000000000E
:10425000000000000000000000000000000000C09E
:10426000FFFFFFFE00000000000000000000000053
:1042700000000000000000000000000000E0FFFF60
:10428000FFFC00000000000400000000000000002F
:104290000000000000000000000000D1FFFFFFFE52
:1042A000000000000000000000000000000000000E
:1042B000000000000000000000E1FFFFFFFC000024
:1042C00000000004000000000000000000000000EA
:1042D0000000000000000063FFFFFFFE0000000080
:1042E00000000000000000000000000000000000CE
:1042F0000000000000B3FFFFFFFC0000000000040E
:1043000000000000000000000000000000000000AD
:1043100000000063FFFFFFFC000000000000000041
:10432000000000000000000000000000000000008D
:104330000063FFFFFFFC000000000004000000001D
:1043400000000000000000000000000000000077F6
:10435000FFFFFFFC00000000000000000000000064
:104360000000000000000000000000000067FFFFE8
:10437000FFFC00000000000400000000000000003E
:1043800000000000000000000000006FFFFFFFFCC5
:10439000000000000000000000000000000000001D
:1043A00000000000000000000057FFFFFFFC0000BD
:1043B00000000004000000000000000000000000F9
:1043C0000000000000000077FFFFFFFC000000007D
:1043D00000000000000000000000000000000000DD
:1043E00000000000002FFFFFFFFC000000000004A1
:1043F00000000000000000000000000000000000BD
:104400000000007FFFFFFFFC000000000000000034
:10441000000000000000000000000000000000009C
:10442000003FFFFFFFFC0000000000040000000050
:104430000000000000000000000000000000007FFD
:10444000FFFFFCFC00000000000000000000000076
:10445000000000000000000000000000003FFFFF1F
:10446000F4FC000000000004000000000000000058
:1044700000000000000000000000007FFFFFF0FCD3
:10448000000000000000000000000000000000002C
:104490000000000000000000003FFFFFE0FC000003
:1044A0000000000400000000000000000000000008
:1044B000000000000000007FFFFFD07C0000000033
:1044C00000000000000000000000000000000000EC
:1044D00000000000007FFFFFF07C000000000004EF
:1044E00000000000000000000000000000000000CC
:1044F0000000007FFFFFE07E0000000000000000E1
:1045000000000000000000000000000000000000AB
:1045100000FFFFFFD03C000000000004000000008E
:10452000000000000000000000000000000000FF8C
:10453000FFF7F07E00000000000000000000000017
:10454000000000002492AAAAAAAAAAAAAAFFFFFF12
:10455000F53EAAAAAAAAAAAA00000000000000002C
:104560000000000000000000000000FFFFFDF82E2A
:10457000000000000000000000000000000000003B
:104580000000000000000000007FFFFCF81F80001A
:104590000000000200000000000000000000000019
:1045A000000000000000003FFFF0FC0D20000000B4
:1045B000000080000000000000000000000000007B
:1045C00000000000005FFFE03F040000000000006A
:1045D000400000000000000000000000000000009B
:1045E00000000017FF8035400000000000000000C0
:1045F00000000000000000000000000000000000BB
:104600000000520000000000000000001000000048
:10461000000000000000000000000000000000009A
:10462000000000000000000000000000000000008A
:10463000000000000000000000000000000000007A
:104640000000000000000000040000000000000066
:10465000000000000000000000000000000000005A
:10466000000000000000000000000000000000004A
:10467000000000000000000000000000000000003A
:104680000000000002000000000000000000000028
:10469000000000000000000000000000000000001A
:1046A000000000800000000000000000000000008A
:1046B00000000000000000000000000000000000FA
:1046C00000000000000000000000000000000000EA
:1046D0000000000000000000000000000000024098
:1046E00000000000000000000000000000000000CA
:1046F00000000000000000000000000000000000BA
:1047000000000000000000000000000000000000A9
:104710000000000000000000000000200000000079
:104720000000000000000000000000000000000089
:104730000000000000000000000000000000000079
:104740000000000000000000000000000000000069
:104750000000000000000008000000000000000051
:104760000000000000000000000000000000000049
:104770000000000000000000000000000000000039
:104780000000000000000000000000000000000029
:104790000000000200000000000000000000000017
:1047A0000000000000000000000000000000000009
:1047B00000000000000000000000000000000000F9
:1047C00000000000000000000000000000000000E9
:1047D0008000000000000000000000000000000059
:1047E00000000000000000000000000000000000C9
:1047F00000000000000000000000000000000000B9
:104800000000000000000000000000002000000088
:104810000000000000000000000000000000000098
:104820000000000000000000000010000000000078
:104830000000000000000000000000000000000078
:104840000000000000000000000000000000000068
:104850000000000000000000000000000000000058
:104860000000000000000400000000000000000044
:104870000000000000000000000000000000000038
:104880000000000000000000000000000000000028
:104890000000000000000000000000000000000018
:1048A0000000010000000000000000000000000007
:1048B00000000000000000000000000000000000F8
:1048C0000080000000000000000000000000000068
:1048D0000000000000000000000000000000004098
:1048E00000000000000000000000000000000000C8
:1048F0000000000000000000000000000020000098
:1049000000000000000000000000000000000000A7
:104910000000000000000000000000000000000097
:104920000000000000000000000000000000000087
:104930000000000000000000001000000000000067
:104940000000000000000000000000000000000067
:104950000000000000000000000000000000000057
:104960000000000000000000000000000000000047
:104970000000000000040000000000000000000033
:104980000000000000000000000000000000000027
:104990000000000000000000000000000000000017
:1049A0000000000000000000000000000000000007
:1049B00000010000000000000000000000000000F6
:1049C00000000000000000000000000000000000E7
:1049D00000000000000000000000000000000000D7
:1049E0000000000000000000000000000000400087
:1049F00000000000000000000000000000000000B7
:104A000000000000000000000000000000000000A6
:104A10000000000000000000000000000000000096
:104A20000000000000000000000010000000000076
:104A30000000000000000000000000000000000076
:104A40000000000000000000000000000000000066
:104A50000000000000000000000000000000000056
:104A60000000000000000400000000000000000042
:104A70000000000000000000000000000000000036
:104A80000000000000000000000000000000000026
:104A90000000000000000000000000000000000016
:104AA0000000010000000000000000000000000005
:104AB00000000000000000000000000000000000F6
:104AC00000000000000000000000000000000000E6
:104AD0000000000000000000000000000000004096
:104AE00000000000000000000000000000000000C6
:104AF00000000000000000000000000000000000B6
:104B000000000000000000000000000000000000A5
:104B10000000000000000000000000100000000085
:104B20000000000000000000000000000000000085
:104B30000000000000000000000000000000000075
:104B40000000000000000000000000000000000065
:104B50000000000000000004000000000000000051
:104B60000000000000000000000000000000000045
:104B70000000000000000000000000000000000035
:104B80000000000000000000000000000000000025
:104B90000000000200000000000000000000000013
:104BA0000000000000000000000000000000000005
:104BB00000000000000000000000000000000000F5
:104BC00000000000000000000000000000000000E5
:104BD00000000000000000000000000000000000D5
:104BE0000000000000000000000000000000400085
:104BF00000000000000000000000000000000000B5
:104C000000000000000000000000000000000000A4
:104C10000000000000000000000000000000000094
:104C20000000000000000000000010000000000074
:104C30000000000000000000000000000000000074
:104C40000000000000000000000000000000000064
:104C50000000000000000000000000000000000054
:104C60000000000000000000000000000000000044
:104C70000000000000000000000000000000000034
:104C80000000000000000000000000000000000024
:104C90000000000000000000000000040000000010
:104CA0000000000000000000000000000000000004
:104CB00000000000000000000000000000000000F4
:104CC00000000000000000000000000000000000E4
:104CD00000000000000000040000000000000000D0
:104CE00000000000000000000000000000000000C4
:104CF00000000000000000000000000000000000B4
:104D000000000000000000000000000000000000A3
:104D1000000000040000000000000000000000008F
:104D20000000000000000000000000000080000003
:104D30000000000000000000000000000000000073
:104D400000000000000000000000008000000004DF
:104D50000000000000000000000000000000000053
:104D60000000000000000000014000000000000002
:104D70000000000000000000000000000000000033
:104D800000000000000C00C0000000040000000053
:104D90000000000000000000000000000000000013
:104DA0000000000C01C00000000000000000000036
:104DB00000000000000000000000000000000000F3
:104DC0000007018000000004000000000000000057
:104DD0000000000000000000000000000000000FC4
:104DE00001C0000000000000000000000000000002
:104DF000000000000000000000000000000783C069
:104E0000000000040000000000000000000000009E
:104E100000000000000000000000000FC380000040
:104E20000000000000000000000000000000000082
:104E30000000000000000000000FFFC000000004A0
:104E40000000000000000000000000000000000062
:104E5000000000000000000FFFC000000000000084
:104E60000000000000000000000000000000000042
:104E700000000000000FFF800000000400000000A0
:104E80000000000000000000000000000000000022
:104E90000000000FFFC00000000000000000000044
:104EA0000000000000000000000000000000000002
:104EB0000007FD800000000400000000000000006A
:104EC0000000000000000000000000000000000BD7
:104ED00078C000000000000000000000000000009A
:104EE000000000000000000000000000000610802C
:104EF00000000004000000000000000000000000AE
:104F00000000000000000000000000063900000062
:104F10000000000000000000000000000000000091
:104F200000000000000000000047BF8000000004F7
:104F30000000000000000000000000000000000071
:104F40000000004A00000003FF20000000000000F5
:104F50000000000000000000000000000000000051
:104F600000BD40000057FF8000000004000000006A
:104F70000000000000000000000000000000007FB2
:104F8000A0000015CEA000000000000000000000FE
:104F9000000000000000000000000000007FE000B2
:104FA0000007DF0000000004000000000000000017
:104FB0000000000000000000000000FFF8000005F5
:104FC000FE90000000000000000000000000000053
:104FD0000000000000000000003FFA000011FE2069
:104FE00000000004000000000000000000000000BD
:104FF000000000000000002FFC000001FC00000089
:1050000000000000000000000000000000000000A0
:10501000000000000003FE000000F8000000000493
:105020000000000000000000000000000000000080
:1050300000000002FF000000F80000000000000077
:105040000000000000000000000000000000000060
:105050000000BF000000F00000000004000000009D
:105060000000000000000000000000000000000040
:105070003F00000078000000000000000000000079
:1050800000000000000000000000000000001F8081
:105090000000F0000000000400000000000000001C
:1050A0000000000000000000000000001780000069
:1050B0007000000000000000000000000000000080
:1050C000000000000000000000000F800001F00060
:1050D00000000004000000000000000000000000CC
:1050E00000000000000000000F800000F000000041
:1050F00000000000000000000000000000000000B0
:1051000000000000000007C00003F00000000004E1
:10511000000000000000000000000000000000008F
:10512000000000000B800001F00000000000000003
:10513000000000000000000000000000000000006F
:10514000000007C00007F00000000004000000009D
:10515000000000000000000000000000000000004F
:1051600007800007F00000000000000000000000C1
:10517000000000000000000000000000000007C068
:10518000001FF80000000004000000000000000004
:105190000000000000000000000000000F80001F61
:1051A000F00000000000000000000000000000000F
:1051B000000000000000000000000780007FF000F9
:1051C00000000004000000000000000000000000DB
:1051D00000000000000000000F00007FF800000049
:1051E00000000000000000000000000000000000BF
:1051F0000000000000000F8001FFF000000000042C
:10520000000000000000000000000000000000009E
:10521000000000001F0003FFF0000000000000007D
:10522000000000000000000000000000000000007E
:1052300000001F0007FFF80000000004000000004D
:10524000000000000000000000000000000000005E
:105250001E000FFFF0000000000000000000000032
:1052600000000000000000000000000000003E0000
:105270001FFFF0000000000400000000000000001C
:105280000000000000000000000000007C003FFF64
:10529000F00000000000000000000000000000001E
:1052A00000000000000000000000FC007FFFF00094
:1052B00000000004000000000000000000000000EA
:1052C0000000000000000001F8007FFFF000000077
:1052D00000000000000000000000000000000000CE
:1052E000000000000001F001FFFFE00000000004EA
:1052F00000000000000000000000000000000000AE
:1053000000000007E001FFFFF000000000000000C7
:10531000000000000000000000000000000000008D
:105320000007C007FFFFE0000000000400000000CD
:105330000000000000000000000000000000000F5E
:105340008007FFFFE00000000000000000000000F8
:10535000000000000000000000000000003F800F7F
:10536000FFFFE0000000000400000000000000005B
:1053700000000000000000000000005E001FFFFFB2
:10538000C00000000000000000000000000000005D
:105390000000000000000000003C003FFFFFC000D4
:1053A00000000004000000000000000000000000F9
:1053B00000000000000000F800BFFFFFC000000078
:1053C00000000000000000000000000000000000DD
:1053D0000000000000F0007FFFFF800000000004DC
:1053E00000000000000000000000000000000000BD
:1053F000000001F001FFFFFF80000000000000003E
:10540000000000000000000000000000000000009C
:1054100003C001FFFFFF8000000000040000000047
:10542000000000000000000000000000000003C0B9
:1054300003FFFFFF800000000000000000000000EC
:10544000000000000000000000000000078007FFCF
:10545000FFFF00000000000400000000000000004A
:105460000000000000000000000007000FFFFFFF29
:10547000000000000000000000000000000000002C
:1054800000000000000000000F001FFFFFFF0000F1
:105490000000000400000000000000000000000008
:1054A0000000000000000E001FFFFFFF00000000D2
:1054B00000000000000000000000000000000000EC
:1054C000000000001C003FFFFFFE00000000000481
:1054D00000000000000000000000000000000000CC
:1054E00000001C007FFFFFFE000000000000000025
:1054F00000000000000000000000000000000000AC
:105500001800FFFFFFFE0000000000040000000084
:105510000000000000000000000000000000380053
:10552000FFFFFFFE00000000000000000000000080
:105530000000000000000000000000001800FFFF55
:10554000FFFE00000000000400000000000000005A
:10555000000000000000000000003001FFFFFFFC21
:10556000000000000000000000000000000000003B
:1055700000000000000000007001FFFFFFFE0000BF
:105580000000000400000000000000000000000017
:105590000000000000003001FFFFFFFC00000000E1
:1055A00000000000000000000000000000000000FB
:1055B000000000007003FFFFFFFE00000000000479
:1055C00000000000000000000000000000000000DB
:1055D00000006007FFFFFFFC00000000000000006B
:1055E00000000000000000000000000000000000BB
:1055F0003003FFFFFFFC000000000004000000007B
:105600000000000000000000000000000000E007B3
:10561000FFFFFFFC00000000000000000000000091
:105620000000000000000000000000003007FFFF45
:10563000FFFC00000000000400000000000000006B
:1056400000000000000000000000600FFFFFFFFCF2
:10565000000000000000000000000000000000004A
:1056600000000000000000003007FFFFFFFC00000A
:105670000000000400000000000000000000000026
:10568000000000000000700FFFFFFFFC00000000A2
:10569000000000000000000000000000000000000A
:1056A00000000000300FFFFFFFFC000000000004BE
:1056B00000000000000000000000000000000000EA
:1056C0000000300FFFFFFFFC0000000000000000A2
:1056D00000000000000000000000000000000000CA
:1056E000581FFFFFFFFC0000000000040000000046
:1056F00000000000000000000000000000001C1F6F
:10570000FFFFDCFC000000000000000000000000C3
:10571000000000000000000000000000183FFFFF34
:10572000F4FC000000000004000000000000000085
:10573000000000000000000000000C3FFFFFF0FC34
:105740000000000000000000000000000000000059
:1057500000000000000000000E3FFFFFE0FC000022
:105760000000000400000000000000000000000035
:10577000000000000000077FFFFFD07C0000000059
:105780000000000000000000000000000000000019
:1057900000000000037FFFFFF07C00000000000419
:1057A00000000000000000000000000000000000F9
:1057B000000003FFFFFFE07E00000000000000008B
:1057C00000000000000000000000000000000000D9
:1057D00001FFFFFFD03C00000000000400000000BB
:1057E000000000000000000000000000000001FFB9
:1057F000FFF7F07E00000000000000000000000045
:10580000000000002492AAAAAAAAAA55557FFFFF69
:10581000F53EAAAAAAAAAAAA000000000000000059
:105820000000000000000000000000FFFFFDF82E57
:105830000000000000000000000000000000000068
:105840000000000000000000007FFFFCF81F800047
:105850000000000200000000000000000000000046
:10586000000000000000003FFFF0FC0D20000000E1
:1058700000008000000000000000000000000000A8
:1058800000000000005FFFE03F0400000000000097
:1058900040000000000000000000000000000000C8
:1058A00000000017FF8035400000000000000000ED
:1058B00000000000000000000000000000000000E8
:1058C0000000520000000000000000001000000076
:1058D00000000000000000000000000000000000C8
:1058E00000000000000000000000000000000000B8
:1058F00000000000000000000000000000000000A8
:105900000000000000000000040000000000000093
:105910000000000000000000000000000000000087
:105920000000000000000000000000000000000077
:105930000000000000000000000000000000000067
:105940000000000002000000000000000000000055
:105950000000000000000000000000000000000047
:1059600000000080000000000000000000000000B7
:105970000000000000000000000000000000000027
:105980000000000000000000000000000000000017
:1059900000000000000000000000000000000040C7
:1059A00000000000000000000000000000000000F7
:1059B00000000000000000000000000000000000E7
:1059C00000000000000000000000000000000000D7
:1059D00000000000000000000000002000000000A7
:1059E00000000000000000000000000000000000B7
:1059F00000000000000000000000000000000000A7
:105A00000000000000000000000000000000000096
:105A1000000000000000000800000000000000007E
:105A20000000000000000000000000000000000076
:105A30000000000000000000000000000000000066
:105A40000000000000000000000000000000000056
:105A50000000000200000000000000000000000044
:105A60000000000000000000000000000000000036
:105A70000000000000000000000000000000000026
:105A80000000000000000000000000000000000016
:105A90008000000000000000000000000000000086
:105AA00000000000000000000000000000000000F6
:105AB00000000000000000000000000000000000E6
:105AC00000000000000000000000000020000000B6
:105AD00000000000000000000000000000000000C6
