:020000040800F2
:1000000000200010017E0008257E0008297E0008DF
:100010002D7E0008317E0008357E000800000000BB
:10002000000000000000000000000000397E000811
:100030003D7E000800000000417E0008297D000888
:10004000457E0008497E00084D7E0008517E00086C
:10005000557E0008597E00085D7E0008617E00081C
:10006000657E0008697E00086D7E0008717E0008CC
:10007000757E0008797E00087D7E0008817E00087C
:10008000857E0008897E00088D7E0008917E00082C
:10009000957E0008997E00089D7E0008A17E0008DC
:1000A000A57E0008A97E0008AD7E0008B17E00088C
:1000B000377D0008B57E0008B97E0008BD7E0008C7
:1000C000C17E0008C57E0008C97E0008CD7E0008FC
:1000D000D17E0008D57E0008D97E0008DD7E0008AC
:1000E000E17E0008E57E0008E97E0008ED7E00085C
:1000F000F17E0008F57E0008F97E0008FD7E00080C
:10010000017F0008057F0008097F00080D7F0008B7
:10011000117F0008157F0008197F00081D7F000867
:10012000217F0008257F0008297F00082D7F000817
:10013000317F0008357F0008397F00083D7F0008C7
:10014000417F0008457F0008497F00083D7D000889
:100150004D7F0008517F0008557F0008597F000837
:100160005D7F0008617F0008657F0008697F0008E7
:100170006D7F0008717F0008757F00080000000097
:10018000797F00087D7F00084FF4E0721044026818
:10019000914203D343681A44914202D380680028F5
:1001A000F5D17047DFF85C07016891B94FF48031F1
:1001B00081604FF4805141604FF0FF31C1600161B7
:1001C0000421DFF844274161C2F8BC11DFF83C1775
:1001D00001600120704701F1080313F0070305D007
:1001E00001F10803C3F1080303F007031944D21A0D
:1001F0008161C26042F001034B60114428234B60CF
:10020000DFF800170969C16170472DE9F84F06460C
:1002100001F1080010F0070008BF884607D001F17F
:100220000800C0F1080000F0070001EB000802F12F
:10023000080010F0070006D002F10800C0F1080025
:1002400000F0070002441546A5EB0800A0EB0309E7
:1002500008EB030B43F00300C8F80400AB4528BFCC
:1002600001F00CFA2879C00758BF01F007FAB9F17C
:10027000100F38BF01F002FAB069854209D1F06869
:100280004844F060C6F818B040F00100CBF8040014
:1002900070E1706985420BD1B0684844B060C6F81F
:1002A00014B040F00101CBF804104BF8000061E1FC
:1002B000686800F00301012940F0AF80C008C00069
:1002C0000190C00820283BD2D5F808A0EF68009024
:1002D000BD4208BF01F0D2F9554508BF01F0CEF983
:1002E00068680099C008C000B0EBC10F18BF01F0EA
:1002F000C5F9009806EBC00000F128018A4508D036
:1003000031698A45C0F08480DAF80C10A94240F0C7
:100310007F80574506D1009A30680121914088437B
:10032000306077E02830874205D0306987426FD34C
:10033000B868A8426CD1CAF80C70C7F808A069E088
:10034000EF68D5F818A0AF420CD0A8683169884290
:1003500023D3C168A94204BFB968A9421DD1C760AF
:10036000B8601CE005F11400076837B905F110000A
:100370000768A7B101E00846076807F114010A6899
:10038000002A02BF07F110010A68002AF3D131697F
:10039000884202D30021016001E001F06FF9BAF157
:1003A000000F37D0E86906EB80004FF498710844DD
:1003B00001688D4208D10760A7B9EA697068012118
:1003C00091408843706025E03069824508D3DAF8AF
:1003D0001000A84214BFCAF81470CAF8107001E0E7
:1003E00001F04CF9B7B13069874211D3C7F818A0B2
:1003F000296929B1814226BF39618F6101F03EF937
:10040000686938B13169884202D37861876101E057
:1004100001F034F9019805448144686840084000BF
:1004200068604FEAD90549F00100CBF804004BF8A9
:100430000990202D23D206EBC50000F12807BA460B
:10044000B9F1100F38BF01F019F9306820FA05F141
:10045000C90704D40121A9400843306006E0B86808
:10046000316988422CBF824601F008F9C7F808B00C
:10047000CAF80CB0CBF808A0CBF80C707AE05FEAB1
:10048000192108BF002023D0B1F5803F28BF1F20CD
:100490001ED2A1F58070000C00F008008140A1F58B
:1004A0008052120C02F004029140A1F580431B0C13
:1004B000C0F10E0003F00203801AC01A994000EB4D
:1004C000D130C11D29FA01F202F0010101EB400017
:1004D00006EB80014FF498721144CBF81C00002207
:1004E000CBF81420CBF81020726822FA00F3DB0757
:1004F00007D4012303FA00F010437060C1F800B084
:100500001DE009681F281DBF4008C0F1190009FA45
:1005100000F0484600E011464A68D208D2004A4539
:1005200014D0C20F01EB820202F1100340001A68DE
:10053000002AF0D1306983421AD3C3F800B0CBF857
:100540001810CBF80CB0CBF808B013E0326988680B
:10055000914228BF90420BD3C0F80CB0C1F808B04C
:10056000CBF80800CBF80C100020CBF8180001E005
:1005700001F084F808F10800BDE8E68F2DE9FA4D96
:100580000546DFF88003006882B008B9FFF70AFE6D
:10059000DFF870030299806841182F31401E21EA6C
:1005A00000000299814280F0A9814FF4D8716E1841
:1005B000B16839B132688018824280F09F818142EF
:1005C000C0F09C8101F05EF800281EBF0446D0F800
:1005D000008014F1010F00F091813068716840448F
:1005E0008142306038BF01467160A86980BB2869CC
:1005F00008B1844200D22C610020F0613461C6F859
:10060000148005F12801BF48006868624FF0FF3090
:1006100028620020C960896001F108024A610A610C
:10062000801C10312028F5D3B748854203D1A8F1AA
:10063000280221462AE055F8040CC00805EBC0004A
:10064000A0F1080104EB0800401AA0F128021DE007
:100650004FF4E0702918084600E08068D0B10268C5
:1006600043681A449442F8D1027B120712D4AA6953
:1006700003689A420ED347683B449A420AD208EB79
:1006800007014160E868A96908EB00022846FFF706
:10069000A2FD1DE128698442084638BF2C6104EBA5
:1006A000080100E0806880B102688A42FAD1017BCB
:1006B00009070AD404604168414441602146029B15
:1006C000284604B0BDE8F04D9FE5AF69394628469D
:1006D000FFF75AFD4FF0000B016840680844019095
:1006E000273810F0070101990EBF0020C0F1080063
:1006F00000F0070008442F3807F11001884234BF8A
:1007000000970090009804F1080100F1180A11F018
:100710000701A8F1280005D004F10801C1F1080182
:1007200001F00701401A2144A961E86040F001028C
:100730004A6008442822426072480069E8610098D3
:10074000083010F0070018BF00F098FF00991B2038
:1007500048604FF4E0712944B1E80C50009808302B
:10076000A0E80C503461C6F81480C6F81CB000989C
:100770000830B061019801E00AF1040A0721CAF8C3
:1007800004100BF1010B0AF108018142F4D3BBF113
:10079000020FB8BF00F072FF0098B84200F09880D6
:1007A000C01B3918C4084A68520852004A6040F019
:1007B000010179603850202C20D205EBC40101F1F1
:1007C0002806B046102838BF00F058FF286820FAE5
:1007D00004F1C90704D40121A1400843286006E0C0
:1007E000B068296988422CBF804600F047FFB76097
:1007F000C8F80C70C7F80880FE6069E0010A23D0D1
:10080000B1F5803F28BF1F211ED2A1F58072120CC6
:1008100002F008029140A1F580531B0C03F0040381
:100820009940A1F58044240CC2F10E0204F00204A8
:10083000D21A121BA14002EBD131CA1D20FA02F3D9
:1008400003F0010202EB410105EB81024FF49873C2
:100850001A44F96100237B613B616B6823FA01F460
:10086000E40705D4012088401843686017601CE045
:1008700012681F291DBF4908C1F1190100FA01F1D1
:10088000014600E01A465368DB08DB00834210D0C3
:10089000CB0F02EB830303F1100449002368002B04
:1008A000F0D12869844211D32760BA61FF60BF602C
:1008B0000EE0296990688A4228BF884206D3C76043
:1008C0009760B860FA600020B86101E000F0D6FEE1
:1008D000E8680299814211D2401AE860A969029A37
:1008E0000A44AA6140F001005060029840F0030001
:1008F000486004B001F10800BDE8F08D002004B0AC
:10090000BDE8F08D741E00200C1900206859883C49
:100910002DE9F84F0446002689465FEA1920C9F1FF
:10092000000B08BF002123D0B0F5803F28BF1F2156
:100930001ED2A0F58071090C01F008018840A0F5D5
:100940008052120C02F004029040A0F580431B0C70
:10095000C1F10E0103F00203891AC91A984001EB94
:10096000D030C11D29FA01F202F0010101EB400172
:1009700004EB8100D0F8300118B31F290FBF4A469D
:100980004A08C2F1190209FA02F2002300E05200FB
:100990004568ED08ED00A5EB09055D4503D25FEA6A
:1009A000050B06460BD04569D70F00EB8700002DDD
:1009B00000691CBF85422B460028E8D11846B8BB09
:1009C000C6BB01208840400041420843616808409E
:1009D00000F05D8141420840401E010B01F0100112
:1009E000C840420902F00802D040830803F0040323
:1009F000D840450805F002055118E8405918C0F3E1
:100A0000400729443944F840401804EB8000D0F8EE
:100A100030010DE008464168C908C900A1EB090191
:100A200059453CBF8B46064601690029F2D1406911
:100A30000028F0D1002E00F02A81A068A0EB090068
:100A4000834580F0248120698642C0F01E81706851
:100A5000C00809EB0B08C000404518BF00F00EFEAF
:100A600006EB0905AE4280F01081F768D6F818A0B1
:100A7000B7420CD0B0682169884223D3C168B14223
:100A800004BFB968B1421DD1C760B8601CE006F16F
:100A90001400076837B906F110000768A7B101E034
:100AA0000846076807F114010A68002A02BF07F127
:100AB00010010A68002AF3D12169884202D300217B
:100AC000016001E000F0DAFDBAF1000F39D0F06901
:100AD00004EB80004FF49871084401688E4209D1FC
:100AE0000760380014D1F2696068012191408843A1
:100AF000606026E02069824508D3DAF81000B04231
:100B000014BFCAF81470CAF8107001E000F0B6FD06
:100B1000BFB12069874212D3C7F818A0306930B13D
:100B20002169884226BF3861876100F0A7FD70699E
:100B300038B12169884202D37861876101E000F011
:100B40009DFDBBF1100F09D248F00300706006EB69
:100B50000800416841F00101416095E049F003005F
:100B600070604BF0010068604FEADB0045F80BB0A5
:100B700020281DD204EBC00101F12807216821FAC9
:100B800000F2D207BB4605D4012202FA00F0084366
:100B9000206006E0B868216988422CBF834600F0D7
:100BA0006DFDBD60CBF80C50C5F808B0EF606BE090
:100BB0005FEA1B2023D0B0F5803F28BF1F201ED244
:100BC000A0F58071090C01F008018840A0F5805261
:100BD000120C02F004029040A0F580431B0CC1F1FE
:100BE0000E0103F00203891AC91A984001EBD030B4
:100BF000C11D2BFA01F202F0010101EB400004EBF0
:100C000080014FF498721144E86100226A612A6100
:100C1000626822FA00F3DB0706D4012303FA00F02E
:100C2000104360600D601CE009681F281DBF40086C
:100C3000C0F119000BFA00F0584600E011464A686E
:100C4000D208D2005A4510D0C20F01EB820202F145
:100C5000100340001A68002AF0D12069834211D3A2
:100C60001D60A961ED60AD600EE022698868914267
:100C700028BF904206D3C5608D60A860E96000205F
:100C8000A86101E000F0FAFC08E100F0F7FC02E1E5
:100C90002DE9F84F04468846606841420840401EEE
:100CA000010B01F01001C840420902F00802D040D7
:100CB000830803F00403D840450805F002055118E5
:100CC000E8405918C0F3400629447118F040401814
:100CD00004EB8000D0F830014168C908C90006461D
:100CE000A1EB080A09E008464168C908C900A1EB60
:100CF000080151453CBF8A46064601690029F2D1E8
:100D000040690028F0D120698642C0F0C280706836
:100D1000C00808EB0A09C000484518BF00F0AEFC47
:100D200006EB080B5E4580F0B480F768B569B74202
:100D30000CD0B0682169884223D3C168B14204BF96
:100D4000B968B1421DD1C760B8601CE006F114005B
:100D5000076837B906F110000768A7B101E0084637
:100D6000076807F114010A68002A02BF07F11001A1
:100D70000A68002AF3D12169884202D30021016068
:100D800001E000F07BFC002D35D0F06904EB800021
:100D90004FF49871084401688E4209D10760380009
:100DA00011D1F2696068012191408843606022E0BE
:100DB0002069854205D32869B04214BF6F612F6155
:100DC00001E000F05BFCB7B12069874211D3BD613F
:100DD000306930B12169884226BF3861876100F0EF
:100DE0004DFC706938B12169884202D3786187610E
:100DF00001E000F043FCBAF1100F09D249F0030002
:100E0000706006EB0900416841F0010141603FE07C
:100E100048F0030070604AF00100CBF804004BF882
:100E20000AA0D4F808804FEAD805202D28BF00F08A
:100E300025FCB8F1000F27D0D4F81490009504EBEE
:100E4000C50000F128052F46B8F1100F38BF00F09B
:100E500015FC2068009920FA01F2D10705D4009A08
:100E6000012191400843206006E0A868216988427A
:100E70002CBF074600F002FCC5F80890C7F80C909C
:100E8000C9F80870C9F80C50C4F808A0C4F814B028
:100E900004E000F0F3FB0020BDE8F28F06F108004B
:100EA000BDE8F28F2DE9F04F83B00546AFF3008027
:100EB000F52DDFF8C04780F002810B2D31BF1027E0
:100EC00005F10B00C708FF002068FE08F04010F095
:100ED000030F42D0C04300F00100861904EBC600A6
:100EE00000F12808F700D8F808506868C008C0006A
:100EF000B84218BF00F0C2FBD5F80890454508BFBE
:100F000000F0BCFB4D4508BF00F0B8FB6868C008A6
:100F1000C000B84218BF00F0B1FBC84505D1206839
:100F20000121B140884320600DE02069814508D34C
:100F3000D9F80C00A84204D1C8F80890C9F80C8070
:100F400001E000F09BFB47F003006860E8190835FA
:100F5000416841F001014160F9E0A168B94280F0C7
:100F6000C080002800F0A280012505FA06F14900A2
:100F70004A42B0401143084041420840401E010B24
:100F800001F01001C840420902F00802D040830875
:100F900003F00403D840460806F002065118F0405A
:100FA0005918C0F340087118414420FA08F000EBCA
:100FB000010804EBC80000F128094FEAC80AD9F873
:100FC00008607068C008C000504518BF00F056FBAC
:100FD000D6F808B04E4508BF00F050FB5E4508BF8C
:100FE00000F04CFB7068C008C000504518BF00F00E
:100FF00045FBD94505D1206805FA08F188432060F2
:101000000DE02069834508D3DBF80C00B04204D121
:10101000C9F808B0CBF80C9001E000F02FFB47F0C6
:1010200003007060AAEB0708F019019048F0010076
:1010300001994860019840F80880A7684FEAD70AEC
:10104000BAF1200F28BF00F019FB47B3CDF800A07C
:1010500004EBCA00D4F8149000F1280AD346102FEC
:1010600038BF00F00BFB2068009920FA01F2D1078D
:1010700005D4009905FA01F10843206007E0DAF889
:101080000800216988422CBF834600F0F7FACAF8AD
:101090000890CBF80C90C9F808B0C9F80CA0C4F8B7
:1010A000088006F108050198606150E06068C0B3EF
:1010B00039462046FFF7ECFD050012D047E015F158
:1010C000400F28BF4FF0FF370BD205F10B00C708C8
:1010D0006068FF0028B139462046FFF719FC05007B
:1010E00035D1A068B8421CD3C11B626910290AD34C
:1010F000D0196061A16041F001034360415047F0A5
:10110000030050600AE00021A160616140F003012A
:1011100051601044416841F00101416002F108054D
:1011200015E0E06887420DD2C01BA169E060CA19D2
:10113000A26140F00100506001F1080547F0030092
:10114000486004E039462046FFF718FA0546AFF339
:101150000080284603B0BDE8F08F00B970472DE944
:10116000F047A0F10804AFF30080DFF808552869C4
:101170008442C0F07982616801F00302012A00F024
:101180007382CA084FEAC208CA0704EB080937D4B9
:10119000226811F0030F00F0698251420C4484422E
:1011A0009044C0F0618269698C4200F0D980D60811
:1011B000202E70D2D4F80CA0A768544508BF00F0C8
:1011C0005DFABC4208BF00F059FA6068C008C00070
:1011D000B0EBC60F18BF00F051FA05EBC60000F1E6
:1011E00028018F4205D029698F4251D3F968A14265
:1011F0004ED1BA453DD128680121B14088432860CD
:101200004C4580F03182D9F80400C10740F12C82AE
:10121000810700F17D81A969894540F0B680E868C1
:10122000AC614044E86040F00101616069698C4252
:1012300002D100216961A960E969814280F01682CA
:10124000DFF83404006808B9FEF7ACFFA96900298B
:1012500000F00C82E868292824BF2846FEF794FF96
:10126000E869E968884280F001824FF0FF30E86168
:10127000FCE12830824506D02869824508D3DAF897
:101280000800A04204D1C7F80CA0CAF80870B7E75C
:1012900000F0F4F9B4E7E768A669A7420BD0A168AB
:1012A000814222D3C868A04204BFB868A0421CD1C2
:1012B000CF60B9601BE004F114010F6837B904F185
:1012C00010010F689FB101E011460F6807F1140289
:1012D0001368002B02BF07F110021368002BF3D133
:1012E000814202D30020086001E000F0C7F9002E1F
:1012F00086D0E06905EB80004FF4987108440168DE
:101300008C4209D10760380011D1E2696868012177
:1013100091408843686073E72869864205D3306945
:10132000A04214BF7761376101E000F0A7F9002FF8
:101330003FF466AF28698742AAD3BE61216929B10B
:10134000814226BF39618F6100F098F960690028F9
:101350003FF456AF296988429AD3786187614FE795
:1013600099F8040000F0030003287FF449AFC5F8A2
:101370000880D9F8040040084000C9F8040048F08B
:101380000100606044F8088070E16969894508D10E
:10139000A8686C614044A86040F001016160205081
:1013A00064E1C008C0004FEAD00ABAF1200F8044BF
:1013B00037D2D9F80C70D9F80860B94508BF00F0E9
:1013C0005DF9B14508BF00F059F9D9F80400C0082B
:1013D000C000B0EBCA0F18BF00F050F905EBCA000F
:1013E00000F128018E4207D029698E42C0F0838027
:1013F000F168494540F07F80B74206D12868012155
:1014000001FA0AF18843286077E02830874205D046
:10141000286987426FD3B86848456CD1F760BE60D1
:101420006BE0D9F80C70D9F818604F450DD0D9F899
:1014300008002969884223D3C168494504BFB968B7
:1014400049451DD1C760B8601CE009F11400076868
:1014500037B909F110000768A7B101E0084607682D
:1014600007F114010A68002A02BF07F110010A6897
:10147000002AF3D12969884202D30021016001E0EA
:1014800000F0FCF8002E38D0D9F81C0005EB8000E5
:101490004FF498710844016889450AD10760380003
:1014A00012D1D9F81C2068680121914088436860F6
:1014B00023E02869864205D33069484514BF776127
:1014C000376101E000F0DAF8BFB12869874212D332
:1014D000BE61D9F8101029B1814226BF39618F61F0
:1014E00000F0CCF8D9F8140038B12969884202D349
:1014F0007861876101E000F0C1F848F001006060A8
:1015000044F80880686984420BD1C5F80880ADE0D2
:1015100040084000C9F8040048F00100606044F849
:1015200008804FEAD807202F22D205EBC70000F130
:1015300028094E46B8F1100F38BF00F09FF8286810
:1015400020FA07F1C90704D40121B94008432860F3
:1015500007E0D9F80800296988422CBF064600F048
:101560008DF8C9F80840F460A660C4F80C907DE0DE
:101570005FEA182008BF002123D0B0F5803F28BFC4
:101580001F211ED2A0F58071090C01F008018840CE
:10159000A0F58052120C02F004029040A0F58043A6
:1015A0001B0CC1F10E0103F00203891AC91A9840FD
:1015B00001EBD030C11D28FA01F202F0010101EB6C
:1015C000400105EB81004FF49872104400226261E3
:1015D0002261E1616A6822FA01F3DB0706D4012384
:1015E00003FA01F11143696004601CE000681F29DF
:1015F0001DBF4908C1F1190108FA01F1414600E097
:1016000010464268D208D200424510D0CA0F00EB03
:10161000820202F1100349001A68002AF0D12969F8
:101620008B4211D31C60A061E460A4600EE02A69C3
:101630008168904228BF914206D3CC608460E0600C
:10164000A1600020A06101E000F018F8286A401EA7
:1016500028620BD1D5F8C80100E080680028FCD1D1
:101660004FF0FF30286201E000F008F8AFF300808F
:10167000BDE8F0870C190020741E0020012000F046
:1016800017B800000749086808B1002070470648ED
:10169000C008C00008600549C908C900091A0160EE
:1016A000704700BF8C1E00209F1E0020983E002027
:1016B00080B500F007F8024A11001820ABBEFBE726
:1016C0002600020080B500F033F802000023DB435F
:1016D0001068984204D011000220ABBE00201060B8
:1016E0005068984204D0111D0220ABBE002050600B
:1016F00001BD000010B584B0040000F019F8A1008D
:10170000421810680021C94388420DD107A00090FB
:10171000002C01D1002000E0042001900320029061
:1017200069460120ABBE106004B010BD3A7474006D
:1017300000487047100200202DE9F04F82460FF25A
:101740005860A5B015461E46D0E90023CDE9122306
:1017500003AF00207960B8620DF1500900E0454404
:101760000020ADF8020012AB4FF0FF3229460DF118
:10177000020001F0AEF88046B8F1010F08DA2878CF
:10178000B0F1010868EB08086FEA08004FEAD0786A
:10179000BDF8020025280CBFA8F1010BC346BBF120
:1017A000010F0EDB2C4614F8011B7868D047002887
:1017B000786000F0F880B86A401CBBF1010BB86299
:1017C000F1D1BDF80200252807D1002038617861E9
:1017D000B861F8613862786205E00028BFD1B86A64
:1017E000E2E240F0010015F8011F2029F9D0232979
:1017F0000DD02B2904D02D2906D030290AD00CE099
:1018000040F0020080B2EEE740F00400FAE740F05A
:101810000800F7E740F01000F4E72A290ED13168FC
:10182000316051F8042B3160002A3A6304D55142EB
:1018300040F00400396380B26D1C13E0002139636D
:101840000BE0396B6FF00043994205D001EB810347
:1018500002EB4301303939636D1C2A78A2F1300163
:101860000A29EED329782E2903D04FF0FF31F962EF
:101870001FE015F8011F2A2907D1316831606D1C5E
:1018800051F8042B3160FA6213E00021F9620BE099
:10189000F96A6FF00043994205D001EB810302EB36
:1018A00043013039F9626D1C2A78A2F130010A290E
:1018B000EED3B8860FF2E840297801F01BF808B1A2
:1018C00015F8010B8DF842009DF84200682802BF10
:1018D00029786829622005D06C2804BF28786C28F4
:1018E00003D171208DF842006D1C14A8F86015F822
:1018F000014BB4F125002AD01C3800F0DB80001F1A
:10190000022840F2D780133800F0FB80093800F03D
:10191000D180801E00F06581401E00F03C81401E99
:10192000022840F2C780001F00F03581401F00F000
:101930009280401E00F0E580401E37D0C01E0BD0C4
:10194000801E00F0DE80C01E00F0DB806CE12520F0
:101950008DF85000012070E19DF842006C2830683D
:10196000306016D050F8048B3060C7F80880FC6AED
:10197000002C04D5404600F0C9FF044607E022468B
:101980000021404600F0DEFF08B1A0EB08047C61B6
:1019900054E150F8042B306002A9504600F03EFAA2
:1019A000002840F14B814FF0FF30FDE1316831609C
:1019B000002251F8040B31604FF03C0E0021CDE9BC
:1019C000020114A8B860DDE902019142FC6808BF79
:1019D000904201D1FA6AC2B100F00F033033DBB29A
:1019E0003A2BA8BF2733AEF101020009A354964653
:1019F00040EA017009090022914208BF904204D0D8
:101A0000BA6804EB0E039A42E6D304EB0E01B96008
:101A1000CEF13C00F96A7861884207DA081AF86169
:101A20004FF6EF71B88E0840B88607E1002940F103
:101A3000058197F8341001F01401102940F0FE8060
:101A4000396B3A69891AFA69891A081A0128C0F2A9
:101A5000F580F861F2E09DF8420062281AD068280B
:101A600006D06A280CD06C281CD0712808D019E048
:101A70003068306050F8041B3060B86A0880DDE0E0
:101A80003068306050F8042B3060B86AC117C2E982
:101A90000001D3E03068306050F8041B3060B86A51
:101AA0000870CBE03068306050F8041B3060B86AD2
:101AB0000860C3E03068C01D20F007023260D2E940
:101AC000000108323260CDE90201002902D53869EF
:101AD0002D2109E0B88E810702D538692B2103E05A
:101AE000C00705D53869202109F80010401C38616D
:101AF00014A839690844B860214602A800F09AFB8E
:101B00009CE09DF842006C280DD0712818BF6A280F
:101B100009D13068C01D20F007023260D2E900010F
:101B20000832326005E03168316051F8040B3160F1
:101B30000021CDE902019DF84200682803D1DDE9CA
:101B4000020180B20BE0622803D1DDE90201C0B2DC
:101B500005E0742818BF7A2804D1DDE902010021CC
:101B6000CDE9020197F83400000731D5DDE9022301
:101B70000020834208BF82422AD044F02000782807
:101B800026D13869302109F80010401C411C396108
:101B900009F800401CE09DF84200314600F007F9CA
:101BA000CDE90201DDE9022300218B4202DA386926
:101BB0002D2109E0B88E810702D538692B2103E079
:101BC000C00705D53869202109F80010401C38618C
:101BD00014A839690844B860214602A800F0A4FAA4
:101BE0002CE09DF842006C2809D001203861306853
:101BF000306050F8041B30608DF850101EE03068E3
:101C0000306001AA50F8041B3060ADF804100020C9
:101C1000ADF8060002A94FF0FF30F862504600F020
:101C2000FDF800280AD5BEE625208DF850000120D9
:101C300038611CB189F8014002203861386B39697C
:101C4000401AF969401A7969401A396A401AB96923
:101C5000401A796AA0EB010897F83400400711D4C4
:101C60002020B8F1010F8DF800000BDB4446012362
:101C70006A4602A9504600F007FE00287FF493AEA2
:101C8000641EF4D1D7F810B0BBF1000F14AC0DD026
:101C900014F8011B7868D047002878603FF483AEC1
:101CA000B86A401CBBF1010BB862F1D130208DF84D
:101CB0000000FC69012C0ADB01236A4602A9504698
:101CC00000F0E2FD00287FF46EAE641EF4D1D7F878
:101CD00014B0BC68BBF1000F0DD014F8011B78687C
:101CE000D047002878603FF45EAEB86A401CBBF174
:101CF000010BB862F1D130208DF800003C6A012C54
:101D00000ADB01236A4602A9504600F0BDFD002807
:101D10007FF449AE641EF4D1B8687969D7F818B079
:101D20004418BBF1000F0DD014F8011B7868D047A0
:101D3000002878603FF437AEB86A401CBBF1010B55
:101D4000B862F1D130208DF800007C6A012C0ADBEA
:101D500001236A4602A9504600F096FD00287FF450
:101D600022AE641EF4D197F8340040077FF5F8AC3A
:101D70002020B8F1010F8DF80000FFF6F1AC01232F
:101D80006A4602A9504600F07FFD00287FF40BAEA2
:101D9000B8F10108F3D1E3E4000000000000000006
:101DA000686A6C747A4C000025B0BDE8F08F622838
:101DB00026D068281DD06A2808D06C2827D0712822
:101DC00004D0742823D07A280CD020E00868C01DE5
:101DD00020F007000860D0E90023083008601946A9
:101DE000104670470A680A6052F8040B0A60002126
:101DF00070470A680A6052F8040B0A6000B20BE0F0
:101E00000A680A6052F8040B0A6040B204E00A68EB
:101E10000A6052F8040B0A60C11770472DE9F44FAD
:101E20000D4694B0D5F830A0BAF1000F804648BFF7
:101E30006FF0004A00F0B2FD696B401801900FF698
:101E40007820D0E90023CDE9022395F83800400737
:101E500002D40198412805D240200DF110090190CB
:101E6000002609E0FFF71EF85FEA0009F8D14FF0FD
:101E7000FF3056E1AAEB040ABAF1010FC0F2CE809E
:101E80001498018802AA0DF1010000F08CFD0028D1
:101E9000044600F1DE801498008810B9641E00F139
:101EA000D880A245C0F2BA8068690199221891428F
:101EB00080F0A2806E634042296A401AA969401AE4
:101EC000696A401AE969401AA96A461A95F8380001
:101ED000400710D42020012E8DF800000BDB374680
:101EE00001236A462946404600F0CEFC002840F017
:101EF000B0807F1EF4D1D5F814B0BBF1000F4F466F
:101F00000DD017F8011BA868C0470028A86000F092
:101F1000A080E86A401CBBF1010BE862F1D13020DF
:101F20008DF800002F6A012F0ADB01236A4629463B
:101F3000404600F0A9FC002840F08B807F1EF4D1C1
:101F4000D5F818B0EF68BBF1000F0CD017F8011BE3
:101F5000A868C0470028A8607BD0E86A401CBBF195
:101F6000010BE862F2D130208DF800006F6A012F7A
:101F700009DB01236A462946404600F085FC00281B
:101F800067D17F1EF5D1E868A969D5F81CB047185C
:101F9000BBF1000F0CD017F8011BA868C047002840
:101FA000A86056D0E86A401CBBF1010BE862F2D190
:101FB00030208DF80000AF6A012F09DB01236A464B
:101FC0002946404600F060FC002842D17F1EF5D132
:101FD00095F8380040070DD52020012E8DF800001F
:101FE00008DB01236A462946404600F04DFC80BBD1
:101FF000761EF6D100266E61224668690DF1010158
:10200000484400F0DDFC6869201868611498801C61
:102010001490801E008800287FF42CAF686B6969DB
:10202000401A296A401AA969401A696A401AE9697E
:10203000401AA96AA0EB010A95F83800400710D4AD
:10204000BAF1010F0DDB5446A8682021C047A860F3
:1020500010B94FF0FF365DE0E86A401C641EE8628C
:10206000F2D16B694A462946404600F00DFC002833
:10207000EFD12C6A012C0ADBA8683021C047002868
:10208000A860E6D0E86A401C641EE862F4D1AB693F
:10209000EA682946404600F0F7FB0028D9D16C6A6F
:1020A000012C0ADBA8683021C0470028A860D0D0E6
:1020B000E86A401C641EE862F4D1E868A969EB692B
:1020C00042182946404600F0DFFB0028C1D1AC6A27
:1020D000012C0ADBA8683021C0470028A860B8D0CE
:1020E000E86A401C641EE862F4D195F838004007A5
:1020F0000ED5BAF1010F0BDBA8682021C0470028DC
:10210000A860A6D0E86A401CBAF1010AE862F3D1DF
:102110006E616E6304A881451CBF4846FFF71DF839
:10212000304615B0BDE8F08F2DE9F343054608466B
:102130002F696F2808BF082405D041F020017829B5
:1021400014BF0A2410243C26D5E90023642818BFB4
:1021500069289046994606D100218B4203DAD8F1CE
:10216000000869EB49090020814508BF80450CD172
:10217000286B50B9082C38D195F83800000734D5B1
:1021800030203B2687F83B002FE0701E009006466B
:10219000404649462246E31700F04EFC02F130006B
:1021A000C0B23A2803DB9DF8041051390818B8551D
:1021B000494640462246E31700F03EFC80468946E9
:1021C0000020814508BF804503D0E868B9198842DE
:1021D000DBD3082C09D195F83800000705D5B85D88
:1021E000302802D0761E3020B855B919E960C6F102
:1021F0003C00296BA861884208DA081A28624FF669
:10220000EF71288F08402887BDE8F38300290ED599
:1022100095F8381001F01401102908D1696B6A692A
:10222000891A2A6A891A0E1A012EA8BF2E62BDE8E1
:10223000F38300002DE9F24F04468EB0D4E900018B
:10224000CDE9020104AF9DF8380040F0200BBBF14E
:10225000610F0AD0206B002848BF062004D408BFB5
:10226000BBF1670F01D1012020636168C1F30A50FF
:1022700040F2FF7290421CD1080304BF206800287E
:1022800009D10320A0619DF8380061381A2835D3A0
:102290000FF2386108E00320A0619DF83800613832
:1022A0001A2828D30FF21C61E068032200F088FB93
:1022B000BDE1012815DA204600F035FC012810DBCD
:1022C00000250020BBF1610F1FD1E16830220A70A8
:1022D0008A1CE2609DF83820612A0CBF78225822BF
:1022E0000FE0626840F2FE3161F31E52451A6260EF
:1022F0004FF0FF30E6E70FF2C851D5E70FF2C851B3
:10230000D2E74A706169891C616110B90026002515
:1023100084E1BBF1610F40F09880206BD4E900AB01
:1023200000284CBF2126461CDDE9020100220023C3
:1023300000F01CFC36B23ABF8BF00040CDE902A0A1
:10234000CDE902AB06F101082D1FB8F1010F8DF8A0
:1023500010200DF1110736DBDDE902010022002318
:1023600000F01CFC2FD21C2102A800F02FFCDDE99C
:10237000020100F0B5FCA8F10708B8F1010F814691
:1023800009DB00F0D9FC02460B46DDE9020100F052
:10239000EBFCCDE90201F81D072105E009F00F0271
:1023A00000F8012D4FEA2919B9F1010F01DB491E8F
:1023B000F4D5491E5CBF002200F8012DF9D5C71DD8
:1023C000B8F1010FC8DA0DF11100391AB142B8BFE6
:1023D0000E4636B230000DF111072FD4884206DACE
:1023E00004A9014449780829A8BF0F2100DA002177
:1023F00004AA024400E0761E12F80139401E8B4206
:10240000F9D00F2904D104A901444A78521C4A701A
:10241000002802D504AF761C2D1D36B2701E0DD4D7
:1024200039180A783032D2B23A2A03DB9DF83830B4
:102430003A3B9A18401E01F80129F2D5206B00287A
:1024400040F1EC80701E2063E8E0DDE9020100222B
:10245000002300F08BFB3CBF81F00041CDE902017D
:102460002DB247F2975068434B49DFF8309190FB0B
:10247000F1F52DB2C5F1070ABAF1010F90461CDB48
:10248000DDE902675FEACA7007D542464B4630462F
:10249000394600F029FD06460F4640464946424669
:1024A0004B464FEA6A0A00F01FFDBAF1000F804662
:1024B0008946E7D1CDE9026724E0CAF1000A002687
:1024C000374F14E05FEACA7007D542464B463046A4
:1024D000394600F009FD06460F4640464946424649
:1024E0004B4600F001FD4FEA6A0A80468946BAF180
:1024F000000FE7D1DDE9020132463B4600F0C6FDA0
:10250000CDE90201BBF1660F216BDFF898900CBF9B
:1025100005F10A0006204618142EA8BF1326302005
:102520008DF810000DF11107012E3DDBDDE90201F0
:1025300000F0ECFB07F1080104220A23B0FBF3F3DF
:1025400003EB8307A0EB4700303001F8010C0A20B1
:10255000B3FBF0F000EB8007A3EB47033033521ED0
:1025600001F8023DE9D1083E012E01F10807DBDB4D
:10257000DDE9020100F0CAFB00F0E8FB02460B4671
:10258000DDE9020100F0F0FB00224B4600F0ACFC5C
:10259000CDE90201CAE700BFA08601000000244087
:1025A0000000F03F84D797410DF11100381A0DF16A
:1025B000110702E0401E6D1E7F1C39783029F9D0CA
:1025C000BBF1660F08BF691C04D0BBF1650F0CBFDF
:1025D00001210021226B8E1836B2B042B8BF0646E8
:1025E00036B231001AD4814204DA785C3528A8BFAB
:1025F000392000DA30207A18521E00E0761E12F8D8
:102600000139491E8342F9D0392802D1785C401C37
:102610007854002902D57F1E761C6D1C2DB29DF8C2
:102620003810009533B23A46204600F003F80FB058
:10263000BDE8F08F2DE9F04786B006468A46904601
:102640001D4600F06CFE012D406A376B90F800903B
:1026500002DA01250FF278284AF02000BDF938404F
:10266000662808BF641C12D0672878D114F1040FC3
:102670007BDBBC4279DA96F83800641C000702D490
:10268000BD42B8BF2F4624B23F1B48BF002724B22B
:10269000F068B169012C23DA4A1C30234354012F1E
:1026A00003DA96F83800000703D5F06800F80290C6
:1026B000521CE742B8BF7C4224B260427062E71904
:1026C000AF42B261B8BF3D46F068B3692DB2F56163
:1026D0002A464146184400F073F9781BB062BCE00A
:1026E00022469542084416DA2A46414600F068F927
:1026F000B1696918601B012FB161706203DA96F845
:102700003800000705D5F06800F80190F069401C1A
:10271000F061B762A1E0414600F052F9B0692018BB
:102720002D1B012F03DA96F83810090703D5F1683D
:1027300001F80090401CB0612DB2AF42B8BF3D46D9
:10274000F068B3692DB22A4608EB0401184400F082
:1027500037F9B0692818B061781B70627DE0BAF172
:10276000610F14D14FF0700A16E0BD4204DA96F8FA
:102770003810090758BF2F467F1E48BF0027BAF1FF
:10278000670F14BF4FF0450A4FF0650A04E0BAF135
:10279000410F08BF4FF0500AB169F368481CB0619F
:1027A000012F18F8012B5A5403DA96F8381009074C
:1027B00017D5F168431CB36101F80090012F10DBBD
:1027C0006D1E2DB2AF42B8BF3D46F0682DB22A460D
:1027D0004146184400F0F4F8B0692818B061781B3D
:1027E0007062F068B1690144200081F800A004D44F
:1027F0002B20487001F1020804E02D224A7001F1FB
:1028000002086442002502AF08E00A22684600F090
:102810009FFD019807F8010B6D1C009C21B2012956
:10282000F3DA022D06DA4AF02000652804BF3020D2
:1028300008F8010B4DB9302008F8010B07E06D1EB8
:1028400002A8405D303008F8010B012DF7DAF0687E
:10285000B1690844A8EB0000F06196F8380000F078
:10286000140010280DD17069B1690818716A081830
:10287000F1690818B16A0818716B8842BCBF081A60
:10288000306206B0BDE8F087F8B504460D4616463E
:102890001F46002077B116F8011BA868A047A86062
:1028A00030B1E86A401CE86200207F1EF3D1F2BD1F
:1028B0004FF0FF30F2BD00000000000000000000FB
:1028C0006E616E004E414E00696E6600494E4600D4
:1028D0003000F8B504460D4616461F4600F040FD90
:1028E0003B4632462946204601B0BDE8F04000F0A4
:1028F0004EBD00000278C9B28A421AB11CBF10F85E
:10290000012FF9E718BF00207047000000F1010314
:10291000810704D010F8011B89B18107FAD1026840
:10292000B2F10131914311F0803F04BF50F8042F00
:10293000F6E710F8011B11B110F8011BFBE7C01AF4
:1029400070470000C9B2830706D0521E22D310F888
:10295000013B9942F7D11FE0083A13D302F1040278
:1029600041EA012141EA014150F8043B121F21BF15
:102970004B40A3F1013C2CEA030C1CF0803FF3D048
:10298000C9B2001F083210F8013B521E28BF91EA5D
:10299000030FF8D818BF0120401E704780B500F023
:1029A000DFFC012002BD70B504460D46164600F05E
:1029B000D7FC324629462046BDE8704000F0DABC1C
:1029C00062B38B0708D0521E11F8013B00F8013B9F
:1029D00000F024808B07F6D1830740F0208000BFF1
:1029E000103A07D330B4B1E83810103AA0E83810E4
:1029F000F9D230BC530724BFB1E80810A0E8081092
:102A000044BF51F8043B40F8043BD20724BF31F8DF
:102A1000022B20F8022B44BF0B7803707047083A52
:102A200007D3B1E80810083A40F8043B40F804CB5B
:102A3000F7D25307E4E700001B4213D1094236D115
:102A40002AB18446B0FBF2F002FB10C2704700F0DE
:102A5000C1BCFCD30022002370470B000200002100
:102A600000207047904271EB030CF6D370B5B1FAB9
:102A700081F4B3FA83F52C1BA340C4F1200532FA8C
:102A800005F63343A2405FF00046E64002E05B08F3
:102A90005FEA3202841A71EB030524BF20462946FF
:102AA0007641F4D302000B003000002170BD012AF2
:102AB000CFD970B5140C20D0B1FA81F4B2FA82F5F6
:102AC000C4F120046419B4F12006D6D3B2405FF0FB
:102AD0000044F440002502E052085FEA3303C61ABE
:102AE00071EB020E24BF3046714664416D41F3D351
:102AF00002000B002000290070BD0C46B1FBF2F172
:102B000002FB11452D0445EA1045B5FBF2F402FB2A
:102B1000145580B240EA0545B5FBF2F002FB1052B5
:102B200040EA044070BD30B4436803F00042012124
:102B3000C3F313034360002B04BF0368002B08D1C9
:102B40000DE00368DD0F45EA440444605B00036068
:102B5000491E4468E302F4D5C4F313034360436899
:102B60001A434260084630BC704700004FF4001C16
:102B70001CEB410F94BF1CEB430F09E041EA030C2F
:102B800050EA4C0C52EA0C0C03D2994208BF904216
:102B9000704714BF8B428242704700004FF4001C04
:102BA0001CEB410F94BF1CEB430F09E041EA030CFF
:102BB00050EA4C0C52EA0C0C03D28B4208BF824202
:102BC000704714BF994290427047000070B50446A8
:102BD0000D466068C0F30A5040F2FF71884207D189
:102BE0006068000304BF2068002817D0022070BD71
:102BF00020B92046FFF797FF012866DA012D0FDB89
:102C000040F2FF71091A8D420AD3606800284CBF58
:102C10009FED2F0B9FED300B84ED000B012070BD5D
:102C20004142A942616806DA6FF31E51401941EA38
:102C30000050606040E0401E63684519012205F1C4
:102C4000350062F31F53352801F00041636003D360
:102C500061600020206070BD002015F11F0F04DAB4
:102C6000206823600022203562606A4212D0401E34
:102C700025688041C2F12003C0439D4045EAD070E1
:102C800025686668D54006FA03F32B432360636822
:102C9000D340636062680A43B0F1004F626003D8BA
:102CA0000DD12078C0070AD52068401C206020681C
:102CB00028B96068401C60604FF0FF3070BD6068EC
:102CC000884204BF20680028F6D1002070BD00BFF4
:102CD000000000000000F0FF000000000000F07F96
:102CE000F446400D40EAC120490006D200F014F835
:102CF000004248BF6FF00040604700F00DF84FF011
:102D0000004188428CBF084640426047400D40EA7F
:102D1000C120490080F00D8040F00040490DA1F530
:102D20008061491C05D4D1F11F0154BFC840C017B0
:102D300070474FF000007047010040F10980F446F1
:102D4000404200F005F851F000416047010000BF2B
:102D500009D0B0FA80F18840C91CC1F58461090529
:102D600001EBD02140057047F0B44FF0004591EAE7
:102D7000030F44BF6B4000F02FBB00BF841A71EB00
:102D8000030604D26E40001BB141121973414FF487
:102D9000001C1CEB410F34BF7CEB430684E00C0DA0
:102DA000A4EB1356362E7DDC012E43DC45EAC3230B
:102DB00043EA525312BFD20292025B08240545EA4D
:102DC000C12141EA5051D2EBC020994125D407D10D
:102DD000B0FA80F610FA06F164D00020203608E040
:102DE000B1FA81F6B140C6F1200220FA02F2114395
:102DF000B0404FEAF474B4EB465434F001064FEAA5
:102E000074040AD8D6F50016760D04F00044F0409C
:102E100061FA06F25040F1404840C00A40EA415091
:102E200021F0004128BF5FEA500550F1000044EB5B
:102E3000D12137E045EAC323DB0A45EAC121C90AAB
:102E4000B6F120050EDD42EA0242120CC5F1200661
:102E500003FA06F6EB4042EA06056D42984161F13D
:102E600000010DE062FA06F5F240554063FA06FCF7
:102E700082EA0C02F3405A406D42904161EB03013B
:102E800011F4801F05D1641E620502D06D0040411F
:102E9000494121F48011430875F1004350F10000CD
:102EA00041EB0451F0BC70471CEB410F15D223F0ED
:102EB000004352EA43060BD04FEA4C0CBCEB410FE7
:102EC00004D80C0D661E342EB7DDEBE7801A99414D
:102ED00050EA410608BF0021E4E708BF1CEB430F9E
:102EE00028BF6FF00001DDE7B0B581EA030C0CF0FC
:102EF000004C40F2FF7515EA11541DBF15EA135737
:102F0000AC42AF4239E0E41923EA455343F480135D
:102F1000C90241F0004141EA505EC7021100A7FB1F
:102F2000020200284FF00000EEFB01204FF00001EC
:102F3000E3FB072118BF42F001024018002149417C
:102F4000E3FB0E01A4F580640F0302D2520040415E
:102F5000494154F101046CDD470872F1004250F11F
:102F6000000051EB0451A1F580115CBF41EA0C0156
:102F7000B0BD4CEA05510020B0BD05EA1357AC4284
:102F800014BFAF4241E050EA410E1CBF52EA430E6B
:102F900002E061460020B0BD24423C441BD15FEA00
:102FA000070EF6D0090302BF01460020AEF1140E51
:102FB000B1FA81F7AEEB070401FA07FE0C37C7F14F
:102FC000200100FA07F7C8404EEA000E23EA4553F5
:102FD00043F48013A2E733F00043B3FA83F704BF4E
:102FE000B2FA82FE77440B3FE41BB7F1200E2FBFED
:102FF00002FA0EF3BB40C7F1200E22FA0EFE38BFD4
:1030000043EA0E03BA40641C82E750EA410E14BF43
:1030100052EA430E6FF000014FF4001717EB430F15
:103020008ABF194617EB410FB5E74CEA055100205E
:10303000B0BDD4F10104B4F120070FDAC4F12007C8
:10304000520828BF42F0010210FA07F501FA07F70B
:10305000E1BF2A43E0403843E1400FE0352C98DCE3
:10306000C7F1200452EA400220FA07F218BF42F0EA
:10307000010231FA07F0A1400A43002172F1004237
:1030800050F1000051EB0C01B0BD00002DE9F04102
:1030900040F2FF7581EA030C0CF0004C15EA115464
:1030A0001DBF15EA1357AC42AF42E9E0BC41C1F382
:1030B0001301C3F31303801A994143F4801304D21C
:1030C000641E4000494180185941C90241EA5051EB
:1030D000B1FBF3F603FB1611A2FB0675D7EBC0207C
:1030E000A94102D2761E80185941C90241EA5051C5
:1030F000B1FBF3FE03FB1E11A2FB0E75D7EBC02044
:10310000A94103D2AEF1010E80185941890241EA6A
:103110009051760546EA8E2EB1FBF3F603FB1611AD
:10312000A2FB0675D7EB8020A94102D2761E80183B
:103130005941C90241EA50514EEA060EB1FBF3F67D
:1031400003FB1611A2FB0675D7EBC020A94102D2E2
:10315000761E80185941C90241EA5051B1FBF3F77C
:1031600003FB1711A2FB0735D3EBC020A94167F180
:1031700000070CBF004247F0010766F3D5274FEA6E
:103180001E31B80814F5806414DDBD0775F10042E6
:1031900050EB0E5051EB045111F5801F5CBF41EA1A
:1031A0000C01BDE8F0814CF07F6141F0E04100206E
:1031B000BDE8F081BD076D0840EA0E5041F4801172
:1031C000D4F10104B4F120060ADAC4F120060200A9
:1031D000E04001FA06F3E1401843B24015430EE027
:1031E000342C14DCC6F1200445EA40056D0820FAB1
:1031F00006F2154321FA06F0A1400D43002175F1B6
:10320000004250F1000051EB0C01BDE8F0810020BC
:103210005FEA0C01BDE8F081CFB992185B41B3FAC7
:1032200083F704BFB2FA82F6BF190B3FB7F120064D
:103230002FBF02FA06F3BB40C7F1200622FA06F6BA
:1032400038BF3343BA401CB1E419641E2FE77F42F4
:1032500031F00041B1FA81F404BFB0FA80F6A4194C
:103260000B3CB4F120062FBF00FA06F1A140C4F1D7
:10327000200620FA06F638BF3143A0403C1B16E773
:10328000AC421ABF05EA1357AF4214E050EA4106B8
:103290001CBF52EA4306BFE750EA41073046614689
:1032A0001CBF41EA0551BDE8F08152EA430C08BF5A
:1032B000C143BDE8F08100204FF4001616EB410F2A
:1032C00098BF16EB430F08BF16EB410F24BFC14355
:1032D00005E016EB430F0CBF61464CEA0551BDE813
:1032E000F081000080B5134800F0E0F80FF24C02C6
:1032F0000FF244010160426241600FF244028263B6
:1033000081600FF24402C1600161416181618162AB
:10331000C16201634163C2630164416401BD10B5D0
:10332000044800F0C3F80446206808B9FFF7DAFF44
:10333000204610BD00000020000000002E0000000C
:1033400066616C73650000007472756500000000B2
:1033500091FBF2F303FB1211C0E90031704700004A
:1033600080B5DFF80C0000F0A1F8806902BD000014
:103370009000002030B430B90FF24800D0E9004589
:10338000C2E900451BE00170012030BC704730B439
:1033900031B90FF23800D0E90045C3E900450EE02D
:1033A0001AB930BC6FF00100704708B10A7802808A
:1033B0000978481E804130BCC043C00F70470020D0
:1033C00030BC70470000000000000000000000005A
:1033D0000000000070470000841A71EB030603D25E
:1033E000001BB141121973414FF4001C1CEB410F3B
:1033F00034BF7CEB430443E00C0DA4EB1356352E95
:1034000050DC45EAC323DB0A45EAC121C912B6F103
:1034100020050DDD63FA05F6EB4086EA030512424E
:1034200018BF45F00105C01851F100010CD213E09E
:1034300062FA06F5F2405540F3415A40B340F3407A
:103440005A408018594107D349085FEA30005FEAC3
:10345000350528BF45F0010501F58011420875F1D9
:10346000004250F1000041EB0451F0BC4FF4001C4D
:103470001CEB410F38BF70470020090D090570474C
:103480001CEB410F10D252EA43060BD0BCEB410FAC
:1034900005D80C0DAB43661E342EB5DD02E0AB4300
:1034A00080185941F0BC7047F0BC7047704700006D
:1034B0000EB478B5002409285ED200285CD005A996
:1034C000254609E00122DFF8683605EB450603EBE7
:1034D00086031A726D1CEDB2854223D20A68DFF8AA
:1034E000503605EB450603EB86031A60002A24D00C
:1034F000091D51F8042BDFF8383605EB450603EBC0
:1035000086035A60B2F5004FDCD903241046102818
:1035100008D3A5220FF254610FF2D46000F002FC30
:10352000AFF30080200024D1DFF8043693F8800147
:1035300040F0010083F880012CE0022498220FF271
:103540002C610FF2F45000F0EDFBAFF30080DFF8D8
:10355000E00505EB4501890040580028E2D1992299
:103560000FF208610FF2586000F0DCFBAFF300804F
:10357000D8E700F0A8FA0DE00124092801D20028BC
:1035800008D1BC220FF2E4510FF2986000F0CAFBA0
:10359000AFF30080204672BC5DF810FB0EB478B526
:1035A000002411284CD200284AD005A925460EE057
:1035B000091D51F8043BDFF8782505EB450602EBC1
:1035C000860260325360012313726D1CEDB2854296
:1035D00028D20B68DFF8582505EB450602EB86027A
:1035E00060321360002BE3D102244FF485720FF296
:1035F0007C510FF2486000F095FBAFF30080DFF8DC
:10360000300505EB450100EB8100006E002809D173
:1036100040F20B120FF254510FF2586000F082FB8F
:10362000AFF30080200008D1DFF8042592F8800174
:1036300040F0020082F880011AE000F054FA17E02E
:10364000002808D1DFF8E82492F8800140F0020059
:1036500082F880010CE00124092809D340F23512D8
:103660000FF208510FF2BC5000F05CFBAFF300808A
:10367000204672BC5DF810FB0EB478B50024072814
:1036800051D200284FD005A9254610E0091D51F858
:10369000043BDFF89C2405EB450602EB86024FF461
:1036A000907632445360012313726D1CEDB2854253
:1036B0002BD20B68DFF8782405EB450602EB860277
:1036C0004FF4907632441360002BDFD102244FF484
:1036D000C2720FF298410FF2D05000F023FBAFF30B
:1036E0000080DFF84C0405EB450100EB8100D0F8C9
:1036F0002001002809D140F285120FF270410FF22B
:10370000E85000F00FFBAFF30080200008D1DFF895
:10371000202492F8800140F0040082F880011AE031
:1037200000F0F2F917E0002808D1DFF8042492F83D
:10373000800140F0040082F880010CE00124092897
:1037400009D340F2AF120FF224410FF2D84000F03B
:10375000E9FAAFF30080204672BC5DF810FB30B58B
:1037600087B00024DFF8C80390F88001072840F0F4
:10377000F08020460090DFF8BC03016841F01001A2
:103780000160016801F0100100910099214600914B
:10379000016841F004010160016801F00401009139
:1037A000009921460091016841F0800101600168A3
:1037B00001F080010091009921460091016841F0DB
:1037C00001010160016801F00101009100992146A9
:1037D0000091016841F002010160016801F00201FD
:1037E0000091009921460091016841F008010160B3
:1037F000006800F0080000900098254610E0CC48D2
:1038000005EB450100EB8100007A002807D0214636
:10381000C74805EB450200EB820000F0B5F86D1CCF
:10382000082DECD3254612E0C14805EB450100EB1D
:10383000810090F86800002808D02146BC4805EBBC
:10384000450200EB8200603000F09EF86D1C102DE8
:10385000EAD3254614E0B64805EB450100EB8100AC
:1038600090F8280100280AD02146B14805EB45020E
:1038700000EB82004FF49072104400F085F86D1C4C
:10388000062DE8D3254619E0A94805EB450100EBD4
:103890008100007A002810D00C20A54910FB05F00B
:1038A00008444168019101210291214603910121BF
:1038B000049101A9006800F047FA6D1C082DE3D3BC
:1038C00025461BE09A4805EB450100EB810060307E
:1038D000007A002811D00C20954910FB05F008440F
:1038E000603041680191012102912146039101213B
:1038F000049101A9006800F027FA6D1C102DE1D396
:1039000025461FE08A4805EB450100EB81004FF496
:1039100090710844007A002813D00C20844910FBD1
:1039200005F008444FF49071084441680191012169
:103930000291214603910121049101A9006800F040
:1039400003FA6D1C062DDDD3FF20794981F8800133
:1039500017E0774890F88001002800D104247448CB
:1039600090F88001C00700D40524714890F88001C8
:10397000800700D406246E4890F88001400700D4E8
:103980000724204607B030BD427A0B469A4206D043
:1039900041720A46416889B2006800F09BBA7047DC
:1039A000F8B504460D460026062C30D2604804EBDC
:1039B000440100EB810090F82801002839D03746F7
:1039C0000CE031465A4807EB470200EB82004FF407
:1039D00090721044FFF7D8FF7F1CFFB2062F29D248
:1039E000534807EB470100EB810090F828010028BD
:1039F00020D0A742E5D129464D4807EB470200EB0E
:103A000082004FF490721044FFF7BEFFE4E7FF2CF2
:103A10000FD13746062F0DD23146454807EB4702F6
:103A200000EB82004FF490721044FFF7ADFF7F1C53
:103A3000F0E70926022000F06BFA3046F2BDF8B537
:103A400006460C4615463A4890F88001FF2838D1C2
:103A500000270CE03046384100F00101344807EB04
:103A6000470200EB8200FFF78FFF7F1CFFB2082F99
:103A700007D22F4807EB470100EB8100007A0028AE
:103A8000E8D100260DE02046304100F00101284831
:103A900006EB460200EB82006030FFF775FF761CF4
:103AA000F6B2102E08D2224806EB460100EB810048
:103AB00090F868000028E6D101212846BDE8F440CE
:103AC0006EE70820F2BD00200AE0194900EB400231
:103AD00001EB820100220A604A600A724A72401CAD
:103AE0006028F2D3704700200BE0114900EB400240
:103AF00001EB8201603100220A604A600A724A7258
:103B0000401C6028F1D3704700200DE0084900EB0D
:103B1000400201EB82014FF49072114400220A60CE
:103B20004A600A724A72401C6028EFD37047000056
:103B3000E41A002030380240506172616C6C656C90
:103B40005F5374727563742E446174615B44617475
:103B5000615F76617269616469635F695D2E506F50
:103B6000727420213D204E554C4C0000433A5C4776
:103B70006F6F676C655F44726976655C50726F6ADF
:103B800065745F53657373696F6E5F362D436F6E37
:103B900074726F6C6575725F456372616E5C4C6FB9
:103BA00067696369656C5C546573744932435C533F
:103BB00072635C506172616C6C656C2E6300000016
:103BC000506172616C6C656C5F5374727563742EB6
:103BD000446174615B446174615F766172696164C0
:103BE00069635F695D2E506F727420213D20300043
:103BF000506172616C6C656C5F5374727563742E86
:103C0000446174615B446174615F7661726961648F
:103C100069635F695D2E50696E203C3D20313555EA
:103C200000000000286E756D203C3D2038292026BC
:103C30002620286E756D203E20302900506172616B
:103C40006C6C656C5F5374727563742E416472653D
:103C500073735B4164726573735F766172696164EB
:103C600069635F695D2E506F727420213D204E554F
:103C70004C4C0000506172616C6C656C5F537472E7
:103C80007563742E4164726573735B41647265730E
:103C9000735F76617269616469635F695D2E506FFD
:103CA000727420213D203000506172616C6C656C33
:103CB0005F5374727563742E4368697053656C65E5
:103CC00063745B4368697053656C6563745F7661A8
:103CD0007269616469635F695D2E506F727420213F
:103CE0003D204E554C4C0000506172616C6C656C0F
:103CF0005F5374727563742E4368697053656C65A5
:103D000063745B4368697053656C6563745F766167
:103D10007269616469635F695D2E506F72742021FE
:103D20003D20300000B583B00091019202906A46B8
:103D300004491820ABBE002801D1FDF79FFC03B059
:103D400000BD00BF10100200F8B400222CE00825CE
:103D5000960006F00C06B5402C43624D960845F8D7
:103D60002640614C24689C434D68ED0300D51C43FC
:103D70005D4D2C606C689C434D68AD0300D51C43C1
:103D8000594D6C60AC689C434D68ED0200D51C43F6
:103D9000554DAC60EC6824EA03054C68A40200D5DC
:103DA0001D43514BDD60521C102A80F0918001238D
:103DB00003FA02F40B682340A342F4D14C68022CAE
:103DC00001D0122C0ED1D40800EB8404256A960091
:103DD00006F01C060F27B740BD430F6907FA06F629
:103DE00035432562056854000326A640B5430E7985
:103DF00006F0030606FA04F42C4304604C68012C18
:103E000005D0022C03D0112C01D0122C14D18568BE
:103E100054000326A640B543CE6806FA04F42C43AA
:103E2000846045680124944025EA04044D68C5F384
:103E3000001595402C434460C56854000326A640F5
:103E4000B5438E6806FA04F42C43C4604C68E40061
:103E5000A9D500240094254C256845F480452560AB
:103E6000246804F480440094009C1E4C950854F887
:103E700025400F25960006F00C06B540AC431C4DBE
:103E8000A84201D1002563E71A4DA84201D10125BE
:103E90005EE7194DA84201D1022559E7174DA84206
:103EA00001D1032554E7164DA84201D104254FE75F
:103EB000144DA84201D105254AE7134DA84201D16E
:103EC000062545E7114DA8427FF441AF07253FE79E
:103ED000F1BC7047002A01D08161704709048161FB
:103EE0007047000008380140003C0140443802405F
:103EF000000002400004024000080240000C0240A2
:103F0000001002400014024000180240001C024051
:103F100038B5044600F010F8054614F1010F02D040
:103F200004480078241800F007F8401BA042FAD398
:103F300031BD00BF0402002001484068704700BF47
:103F4000040200202DE9F8430546286804460027AE
:103F50003E4600F0F2FE002840F08382286800F020
:103F6000C0FE002800F07D82286800F0BAFE8007BD
:103F700004D52868416901F002014161286800F018
:103F8000B0FE00035DD5286800F0AFFE8046B8F1B2
:103F9000000F55E05FEAC8704FD53146C9B22868B6
:103FA00000F0B1FE81465FEAC97031D504EB4610DE
:103FB00000F53060012181602869012813D11C209F
:103FC000704328444FF400710844016804EB461222
:103FD00002F530621269C2F31202891A0161416866
:103FE0000268114441603146C9B2284600F0E9FE3A
:103FF000286901280CD1002E0AD1D5F80C0200281E
:1040000006D14FF46F702A180121286800F0B4FE21
:104010005FEA097008D5284600F0CCFE04EB461094
:1040200000F53060082181605FEAC96005D504EBC6
:10403000461000F5306010218160761C5FEA580858
:10404000A8D1286800F04DFE40036ED5286800F026
:1040500053FE80463E46B8F1000F65E05FEAC87047
:104060005FD53146C9B2286800F057FE81465FEA45
:10407000C9702BD504F50060001D016B0122B24010
:104080009143016304EB461000F51060012181604B
:104090002869012806D11C2070432844416C026C19
:1040A000114441643146C9B2284600F094FE2869A3
:1040B00001280BD1002E09D1E86C002806D14FF45D
:1040C0006F702A180121286800F056FE5FEA097017
:1040D00005D504EB461000F51060082181605FEA09
:1040E000C96005D504EB461000F510601021816011
:1040F0005FEA496005D504EB461000F510604021E9
:1041000081605FEA897005D504EB461000F5106008
:10411000022181605FEA096003D53146284600F03C
:10412000B5FA761C5FEA580898D1286800F0D9FDE6
:1041300000280ED504F50060001D016849084900FB
:104140000160284600F07BFE2868416901F00041CB
:104150004161286800F0C5FD00050DD504F500603B
:10416000001D4068C00702D5284600F052FE2868AE
:10417000416901F400614161286800F0B2FDC004AA
:104180004FD504F50060001D016849084900016031
:104190001021286800F0CCFAFF2108E004EB47105A
:1041A00000F51062916000F5306081607F1C6868E6
:1041B0008742F3D304F50060001D4FF0FF314161E9
:1041C000816941F001118161286B002804F50060CC
:1041D0000BD0D0F8841041F00B01C0F88410001D02
:1041E000016C41F00B01016408E0001D016941F020
:1041F0000B010161C16841F00B01C16004F5006071
:10420000016821F4FE6101604FF46F702A1829697A
:10421000C9B2286800F0B0FD2868416901F48051F6
:104220004161286800F05DFD800440F18C802868C1
:1042300000F087FD2868C16821F47051C1602868CA
:1042400000F087FA00280AD10020E8604FF40070DF
:1042500068612868C16841F41051C1606BE00320B7
:10426000E8604020686100F004FF7F4909187F4A38
:10427000914205D22868C16841F47051C1605AE08A
:104280007B4909187B4A914205D22868C16841F4EC
:104290006051C1604FE078490918784A914205D2CF
:1042A0002868C16841F45051C16044E0744909185C
:1042B000744A914205D22868C16841F44051C160F6
:1042C00039E071490918714A914205D22868C168DC
:1042D00041F43051C1602EE06D4909186D4A914298
:1042E00005D22868C16841F42051C16023E06A49C1
:1042F00009186A4A914205D22868C16841F41051F0
:10430000C16018E066490918664A914205D22868DA
:10431000C16841F40051C1600DE063490818634968
:1043200088422868C16803D241F4E051C16002E0CC
:1043300041F4C051C160284600F05AFD2868416927
:1043400001F400514161286800F0CBFCC00640D563
:104350002868816921F010018161276A07F00F0048
:10436000C0EBC00105EB81004FF4FC7100EB0108CC
:10437000C7F34340022817D147F6F070074223D015
:10438000C7F30A12D8F80C10204600F024FCC7F33B
:104390000A10D8F80C100144C8F80C10D8F81810FE
:1043A0004018C8F818000FE006280DD108224FF475
:1043B0006F702918204600F00EFCD8F81800C7F3DB
:1043C0000A110818C8F818002868816941F010011E
:1043D0008161286800F085FC000707D5284600F0B9
:1043E00003FD2868416901F008014161286800F077
:1043F00078FCC00209D53146C9B2284600F027FD35
:104400002868416901F480114161286800F069FC65
:10441000800209D53146C9B2284600F014FD28684B
:10442000416901F400114161286800F05AFC400024
:1044300007D5284600F00FFD2868416901F080414A
:104440004161286800F04DFC40070AD5286847689C
:10445000780702D5284600F002FD286841683943F4
:104460004160BDE8F1830000405327FF00350C0098
:10447000401E1BFF40420F0000DC0BFF804F12006C
:10448000808CF9FE20D6130060B6E5FE60E31600CE
:1044900000D3CEFE40771B00C05BB3FEC09121006D
:1044A00000CA91FE20753800E05459FEE09C41009E
:1044B00010B5044694F8B803012801D1022010BDBC
:1044C000012084F8B803206800F0FDFB002084F888
:1044D000B80310BD38B50446080601F07F00C0EBF4
:1044E000C00503D504EB8500383004E004EB8500FB
:1044F0004FF4FC75284401F07F050570C90941702F
:104500008260C3704178002901D00178C180022BFC
:1045100001D10021017194F8B813012901D10220C1
:1045200032BD012184F8B8130146206800F032F949
:10453000002084F8B80332BD38B501F07F04C4EB25
:10454000C40500EB85044FF4FC752C44E260636104
:104550000023A361637001F07F0323700369012BC3
:1045600000D122617F2211420269D2B22146006845
:1045700002D100F072FA01E000F059F9002032BDDA
:1045800038B50C4604F07F01C1EBC10500EB850195
:104590003831CA604B6100238B6101234B7004F0FA
:1045A0007F030B700369012B00D10A617F22144243
:1045B0000269D2B2006802D100F04FFA01E000F0C7
:1045C00036F9002032BD38B504460D46280608D518
:1045D00005F07F00C0EBC00104EB810000F1380161
:1045E00006E0C5EBC50004EB80004FF4FC7101440C
:1045F0000120887005F07F0008702846C0094870C7
:1046000094F8B803012801D1022032BD012084F8BA
:10461000B803206800F0EFFA7F20054207D14FF47D
:104620006F7022182169C9B2206800F0A5FB002034
:1046300084F8B80332BD10B50446080607D501F06A
:104640007F00C0EBC00204EB8200383006E0C1EB13
:10465000C10004EB80004FF4FC7210440022827011
:1046600001F07F020270C909417094F8B813012962
:1046700001D1022010BD012184F8B8130146206841
:1046800000F0F0FA002084F8B80310BD2DE9F843DB
:1046900005460C462E68C4EBC40005EB800000F113
:1046A00038077869B969A0EB0108B868404500D2BD
:1046B000804608F103004FEA90091CE0B969A0EBBD
:1046C0000108B868404500D2804608F103004FEA6F
:1046D00090092869C0B20090404603469BB222462A
:1046E000D2B2F968304600F061FAF8684044F860E8
:1046F000B8694044B86106EB441000F51060806969
:1047000080B2814506D2B8697969884202D20846EA
:104710000028D3D1B8F1000F06D106F50060416B37
:104720000122A240914341630020BDE8F2830000D2
:104730000022890141F020010161521CDFF86C1652
:104740008A4201D30320704701698906F5D400200D
:104750007047002100F50062926812F0060F17D032
:1047600000F50062926802F00602022A06D000F507
:104770000062926802F00602062A01D1032107E0D6
:1047800000F50060806800F00600042800D10221D6
:104790000846704730B44A78012A00F50062D369B0
:1047A00022D101240D78AC40A4B22343D3610A780E
:1047B00000EB421202F510621268120434D40A7837
:1047C00000EB421000F5106003688C68C4F30A0423
:1047D000C97844EA814141EA825141F0805141F473
:1047E0000041194301601FE001240D78AC4043EA09
:1047F0000443D3610A7800EB421202F5306212687A
:10480000120411D40A7800EB421000F530600268FF
:104810008B68C3F30A03C97843EA814141F08051B0
:1048200041F4004111430160002030BC704770B575
:1048300082B04B78012B40F09E804B69002B0B78A7
:1048400000EB431303F510631C6915D16FF3DC44CF
:104850001C610B7800EB431303F510631C6944F4EF
:1048600000241C610B7800EB431303F510631C69F3
:10487000E40CE4041C613DE0E40CE4041C610B78EE
:1048800000EB431303F510631C696FF3DC441C61F8
:104890000B7800EB431303F510638C681D694E69B8
:1048A000A619761EB6FBF4F4DFF8046506EAC444E4
:1048B0002C431C610B7800EB431303F510631C6958
:1048C0004D69C5F312052C431C61CB78012B11D126
:1048D0000B7800EB431303F510631C6924F0C0440C
:1048E0001C610B7800EB431303F510631C6944F063
:1048F00000541C61012A07D10B7800EB431303F528
:1049000010630C695C610DE0CB78012B0AD04B6918
:10491000002B07D000F500635C6B01250E78B540D5
:104920002C435C63CB78012B11D100F500639B68AD
:10493000DB050B7800EB431303F510631C6803D40D
:1049400044F000541C6002E044F080541C600B787A
:1049500000EB431303F510631C6844F004441C602F
:10496000CB78012B77D100924B699BB20A78C9684A
:1049700000F01CF96FE00B7800EB431303F5306394
:104980001C69E40CE4041C610B7800EB431303F591
:1049900030631C696FF3DC441C614B69002B14D13C
:1049A0000B7800EB431303F5306423698D68C5F37E
:1049B00012052B4323610B7800EB431303F530639F
:1049C0001C6944F400241C611EE08B684C691C19AE
:1049D000641EB4FBF3F39BB20C7800EB441404F5B3
:1049E00030642569DFF8C86306EAC34635432561AC
:1049F0000C7800EB441404F5306425698E68734329
:104A0000C3F312032B432361012A06D10A7800EB7A
:104A1000421202F53062CB685361CA78012A11D183
:104A200000F500629268D2050A7800EB421202F5A6
:104A30003062136803D443F00053136002E043F084
:104A400080531360097800EB411000F53060016875
:104A500041F004410160002076BD30B44B78012B59
:104A600064D14B69002B0B7800EB431303F5106303
:104A70001C6915D16FF3DC441C610B7800EB431308
:104A800003F510631C6944F400241C610B7800EBEF
:104A9000431303F510631C69E40CE4041C6125E076
:104AA000E40CE4041C610B7800EB431303F5106382
:104AB0001C696FF3DC441C618B684C69A34200D90C
:104AC00023464B610B7800EB431303F510631C691D
:104AD00044F400241C610B7800EB431303F51063CE
:104AE0001C694D69C5F312052C431C610B7800EB62
:104AF000431303F510631C6844F004441C60012A4E
:104B000007D10A7800EB421000F510600969416195
:104B100049E04A69002A46D000F50060426B012353
:104B2000097803FA01F1114341633CE00B7800EB93
:104B3000431303F530631C69E40CE4041C610B7837
:104B400000EB431303F530631C696FF3DC441C6115
:104B50004B69002B01D08B684B610B7800EB431342
:104B600003F530631C6944F400241C610B7800EBEE
:104B7000431303F530631C698D68C5F312052C439C
:104B80001C61012A06D10A7800EB421202F530625C
:104B9000CB685361097800EB411000F53060016883
:104BA00041F004410160002030BC704770B4002522
:104BB000039C002C0CD1DB1C07E00C68091D00EBEA
:104BC000023606F5805634606D1CB5EB930FF4D3B6
:104BD000002070BC704710B40023D21C05E000F523
:104BE000805424680C605B1C091DB3EB920FF6D354
:104BF000084610BC70474A78012A0A7800EB421236
:104C000017D102F510621268002A08D40A7800EB66
:104C1000421202F51062136823F080431360097892
:104C200000EB411000F51060016841F400110160D3
:104C300016E002F530621268002A08D40A7800EB08
:104C4000421202F53062136823F080431360097842
:104C500000EB411000F53060016841F40011016083
:104C6000002070474A78012A0A7800EB421214D1DA
:104C700002F51062136823F400131360CA78032A44
:104C800001D0022A1DD1097800EB411000F5106017
:104C9000016841F08051016013E002F53062136851
:104CA00023F400131360CA78032A01D0022A08D122
:104CB000097800EB411000F53060016841F0805147
:104CC00001600020704700F50060026822F4FE6277
:104CD00002600268090101F4FE61114301600020D5
:104CE0007047416980690840704700F5006081693C
:104CF000C0690840000C704700F500608169C06918
:104D0000084080B2704700EB411101F530618968BD
:104D100000F5006040690840704700F500621369C3
:104D2000526B00EB411000F510608068CA40D10161
:104D300001F08001194308407047406900F001000C
:104D4000704700F510610A68D20AD2020A6000F5C5
:104D50000061896801F00601042905D100F51061A0
:104D60000A6842F003020A6000F50060416841F4FD
:104D7000807141600020704710B400F5306300245A
:104D80001C611C6944F400241C611C6944F0180473
:104D90001C611C6944F0C0441C61012903D15A61A3
:104DA0004FF080201860002010BC7047410D0300B8
:104DB0000000F81F4FF46F710144D0F8EC0300F0CD
:104DC000C9B9C1EBC10200EB8202D2F80422D0F8CB
:104DD000EC0300F0F5B9C1EBC10200EB8202526CAA
:104DE000D0F8EC0300F03CBAD0F8EC0300F0F3BAD2
:104DF00010B504460121E068002800D10021D4F854
:104E0000EC0300F0D5FAD4F8EC03BDE8104000F054
:104E1000A9BA10B50446D4F8EC0300F0CCFA206827
:104E200000F56060016841F001010160206A00281E
:104E300004D00D48016841F00601016010BDD0F8B2
:104E4000EC0300F0C1BAD0F8EC0300F0DABAD0F805
:104E5000EC0300F0D4BAD0F8EC0300F0D4BAD0F8E8
:104E6000EC0300F0D2BA000010ED00E038B51C46AB
:104E7000002513462246D0F82002FFF72BFB00281E
:104E800004D0022801D1012500E00225284632BDC8
:104E900010B50024D0F82002FFF795FB002804D0BD
:104EA000022801D1012400E00224204610BD10B5E3
:104EB0000024D0F82002FFF7BEFB002804D002280F
:104EC00001D1012400E00224204610BDD0F82002C8
:104ED0000A0601F07F01C1EBC10204D500EB82009C
:104EE00090F83A00704700EB820090F8FA017047A2
:104EF00010B50024D0F82002FFF7DAFA002804D019
:104F0000022801D1012400E00224204610BD10B582
:104F10000024D0F82002FFF733FB002804D0022839
:104F200001D1012400E00224204610BD10B5002468
:104F3000D0F82002FFF700FB002804D0022801D19E
:104F4000012400E00224204610BD000070B5044694
:104F50000D46002C66D05348006800F00F00A842B0
:104F600006D250480570006800F00F00A84259D1E1
:104F70002078800716D52078400704D54A488168F4
:104F800041F4E05181602078000704D546488168EB
:104F900041F4604181604448816821F0F001A268D9
:104FA000114381602078C0072FD56068012804D1A3
:104FB0003D48006880030DD434E0022801D0032866
:104FC00004D139480068800104D42BE036480068D9
:104FD000800727D5344881688908626852EA8101D0
:104FE0008160FEF7A9FF06462F48806800F00C009C
:104FF0006168B0EB810F08D0FEF79EFF801B41F285
:1050000089318842F0D3032070BD2648006800F043
:105010000F00854208D223480570006800F00F0099
:10502000A84201D0012070BD2078400706D51E4857
:10503000816821F4E051E268114381602078000723
:1050400007D51948816821F46041226941EAC2010B
:10505000816000F033F81549134A9268C2F30312D5
:10506000895CC84012490860002000F0DBF900208C
:1050700070BD0F480068704780B5FFF7FAFF0E4912
:105080000C4A1268C2F38222895CC84002BD80B516
:10509000FFF7EFFF0849074A1268C2F34232895C02
:1050A000C84002BD003C024000380240007C0008BD
:1050B00018020020083802401C7E000800B517487E
:1050C000406800F00C00042802D0082802D022E03A
:1050D000134800BD1148016801F03F02006840021A
:1050E0000E480068C0F3881006D50D49A1FB0001E9
:1050F0000023FDF7A1FC05E00A49A1FB0001002304
:10510000FDF79AFC05490968C1F30141491C4900B2
:10511000B0FBF1F000BD034800BD00BF0438024001
:1051200000127A000024F4000020704710B5022419
:10513000D0F81422002A04D012689047002800D129
:105140000024204610BD80B5D0F814225268904744
:10515000002002BD10B504464FF40270204400F058
:10516000BDFB4FF4FA70204401210160418B416086
:10517000007D10F01F0003D002280FD007D314E0E9
:105180004FF402702118204600F070F916E04FF439
:1051900002702118204600F08DF90FE04FF40270E4
:1051A0002118204600F0A3F908E04FF4FA702044DB
:1051B000007D00F080012046FFF76AFE002010BD50
:1051C00010B5044608461146020032D1D4F8F40165
:1051D000032843D14FF4867020444268006882421D
:1051E0000FD24FF48670204402684368D21A0260DE
:1051F0004068824200D31A4692B2204600F0A4FBD7
:105200002CE04FF4FA702044006A006900280CD0AA
:105210004FF4FA702044007A032806D120464FF458
:10522000FA712144096A09698847204600F094FB15
:1052300014E04FF4FA712144096A896900290DD0FC
:105240004FF4FA712144097A032907D10146204617
:105250004FF4FA722244126A92699047002010BDFE
:1052600010B5044610460A0066D1D4F8F41102299C
:1052700053D104F118018A6849688A4204F118017F
:105280000FD24A688B68D21A4A6092B20146204611
:1052900000F052FB00231A4611462046FFF746FE57
:1052A0003BE008681146B0FBF1F201FB1200002858
:1052B0001CD104F1180108688968884216D34FF49C
:1052C000FA7121444968884210D2002211462046D2
:1052D00000F032FB00204FF4FA712144486003468D
:1052E000024601462046FFF721FE16E04FF4FA7011
:1052F0002044006AC06800280CD04FF4FA702044A3
:10530000007A032806D120464FF4FA712144096A35
:10531000C9688847204600F02AFB4FF4FA70204401
:10532000007B01281CD12046FFF7FEFE00204FF431
:10533000FA712144087313E04FF4FA702044006AB4
:10534000406900280CD04FF4FA702044007A0328FA
:1053500006D120464FF4FA722244126A52699047ED
:10536000002010BD10B50446402300221146FFF76F
:105370007DFD4020C4F81001034600228021204614
:10538000FFF774FD4020211DC8614FF4FE702044DA
:1053900001210170C069002808D06168C9B22046A7
:1053A0004FF4FE722244926952689047002010BD6B
:1053B0000174002070474FF4FE7108440178417079
:1053C00004210170002070474FF4FE7108444178B9
:1053D00001700020704780B590F8FC1103290CD1B2
:1053E0004FF4FE7101448969C969002905D04FF461
:1053F000FE7101448969C9698847002002BD002007
:105400007047002070470020704780B54FF4FE7150
:105410004218012111704168C9B2926952689047DF
:10542000002002BD10B504464FF47A700D4909788A
:10543000B0FBF1F00C490968B1FBF0F000F00CFB97
:10544000002801D0012010BD102C09D200222146D5
:105450004FF0FF3000F0F0FA02488460002010BDE9
:10546000012010BD040200201802002080B54A78F7
:10547000092A1BD8DFE802F011171A141A08051AB6
:105480000E0B00F0C9F813E000F051F910E000F045
:1054900076F90DE000F0C6F90AE000F0D9F907E06E
:1054A00000F0EBF904E000F0FCF901E000F02AFA6A
:1054B000002002BD38B504460D4694F8FC010328CF
:1054C00010D1287902280DDA20464FF4FE722244CA
:1054D000926992689047E888002806D1204600F03B
:1054E0003BFA02E0204600F00DFA002032BD38B54C
:1054F00004460D462979287800F06000202809D15B
:10550000294620464FF4FE722244926992689047E1
:10551000002032BD687800284CD0012826D003280E
:1055200077D194F8FC01022802D0032808D06CE05F
:1055300000296ED080296CD02046FFF7A9FC68E0D6
:105540006888002806D1002904D0802902D020468E
:10555000FFF79EFC294620464FF4FE7222449269D2
:1055600092689047204600F0F7F952E094F8FC0169
:10557000022802D0032808D047E0002949D080291A
:1055800047D02046FFF784FC43E06888002840D1DC
:1055900011F07F000AD02046FFF789FC29462046FB
:1055A0004FF4FE722244926992689047204600F0C0
:1055B000D3F92EE094F8FC01022802D0032807D08A
:1055C00023E011F07F0024D02046FFF761FC20E0AB
:1055D0000846000601F07F0004D504EB001000F13E
:1055E000140504E004EB00104FF482728518204685
:1055F000FFF76CFC401E8041C043C00F28600222B0
:105600002946204600F089F903E02946204600F0AB
:1056100079F9002032BD000038B504460D4668888F
:10562000000A401E062800F27E80DFE800F0042019
:10563000327C7C646F006946207CD4F810221268AA
:105640009047BDF80010002910D0E98800290DD03E
:10565000BDF80010EA88914200D91146ADF800105B
:10566000BDF800200146204600F057F931BD207CEE
:10567000002868464FF404712144496804D1896ABE
:10568000884702214170DCE7C96A884702214170DE
:10569000D7E7A878052846D8DFE800F0030A1118F4
:1056A0001F266946207CD4F8102252689047C8E72C
:1056B0006946207CD4F8102292689047C1E7694679
:1056C000207CD4F81022D2689047BAE76946207C43
:1056D000D4F8102212699047B3E76946207CD4F8C9
:1056E000102252699047ACE76946207CD4F810221A
:1056F00092699047A5E7207C002814D168464FF4B2
:10570000047121444968496B88479AE7207C002846
:1057100009D168464FF4047121444968096B8847F0
:10572000072141708DE7204600F0ECF831BD38B517
:105730000446888800281ED1C88800281BD1887894
:1057400000F07F0594F8FC01032814D04FF4FE709C
:105750002044857029462046FFF7CAFB204600F00A
:10576000FBF8002D03D0022084F8FC0131BD01209C
:1057700084F8FC0131BD2046BDE83440C2E038B5B4
:1057800004460D462648698801700078022842DAEE
:1057900094F8FC01022802D0032814D03BE02048F2
:1057A000007800280AD01E4801786160032084F840
:1057B000FC012046FFF7BAFC022827D02046BDE8AE
:1057C000324000F0C9B81648007800280DD10220F8
:1057D00084F8FC010020606001462046FFF7B3FC1E
:1057E0002046BDE8324000F0B7B80D480078616847
:1057F0008842E3D0C9B22046FFF7A5FC08480178EB
:1058000061602046FFF792FC0228D7D12946204646
:10581000BDE8344076E029462046BDE8344071E0DA
:10582000901E0020CA88012A11D190F8FC21022A7A
:1058300002D0032A07D00AE000218160012200F192
:10584000080100F06AB80122011D00F066B859E0B5
:1058500090F8FC21921E012A0ED80121C1604FF45C
:10586000FE7101448968002901D00321C160022230
:1058700000F10C0100F051B844E010B5044648882E
:1058800001280DD14FF4017022180120106020462C
:105890001269926890472046BDE8104000F05CB85D
:1058A00010BD10B5044694F8FC01801E012810D8E4
:1058B0004888012811D14FF4FE7022180020906012
:1058C00020469269926890472046BDE8104000F05B
:1058D00043B82046BDE8104014E010BD0A780270BD
:1058E0004A7842708A78CB7812EB032242800A7998
:1058F0004B7912EB032282808A79C97912EB01215C
:10590000C180704710B504468021FFF7C1FA00211D
:105910002046BDE81040FFF7BBBA80B50223C0F8AF
:10592000F43100F118031A605A6013460A46002148
:10593000FFF7EDFA002002BD80B513460A460021AC
:10594000FFF7E5FA002002BD80B513460A460021A4
:10595000FFF7ECFA002002BD80B50421C0F8F41175
:1059600000231A461146FFF7D2FA002002BD80B587
:105970000521C0F8F41100231A461146FFF7D6FAA4
:10598000002002BD3B490A684FF6FF031A4000029F
:1059900000F4E0601043384A10430860704735480F
:1059A0000068C0F302207047012100F01F029140FF
:1059B000324A400942F820107047002807D50901F3
:1059C0002F4A00F00F00104400F8041C7047090132
:1059D0002C4A1154704710B400F00700C0F10703BF
:1059E000052B00D30423041D072C01D2002000E066
:1059F000C01E012404FA03F35B1E1940814004FA1F
:105A000000F0401E1040084310BC704710B5411E06
:105A1000B1F1807F01D3012010BD1B4C401E60609E
:105A20000F214FF0FF30FFF7C8FF0020A0600720D4
:105A30002060002010BDA5E770B504460D4616464F
:105A4000FFF7ADFF32462946FFF7C5FF0146204666
:105A5000BDE87040B1E7A7E7D8E704280A48016825
:105A600003D141F004010160704721F0040101609D
:105A7000704700000CED00E00000FA0500E100E0D6
:105A800018ED00E000E400E010E000E000F000B8F5
:105A900070470000F0B58DB004460025DFF86C6358
:105AA0000220707028467060B060F06030610420A1
:105AB0003070DFF8E0344FF400400C900B934FF45B
:105AC00080400A9009934FF40050089007934FF4D8
:105AD0008050069005934FF40060049003934FF4B8
