:04011D00020B82004F
:0F008F007E127FC07DF07B017A0079001200F1B4
:10009E00850C82850B837402F0F50A7412F0250A22
:1000AE00F50A74C0F0250AF50AE4F508F50974009E
:1000BE002509F58274003508F583E0FF850C8285ED
:1000CE000B83F0EF250AF50A0509E509700205080C
:1000DE00B4C0DBE508B412D6850C82850B83E50A25
:0100EE00F021
:0200EF0080FE91
:03000000020003F8
:0C000300787FE4F6D8FD75810C02004AFD
:1000F100EF4E6012EF60010EEDBB010B89828A8326
:10010100F0A3DFFCDEFA2289F05007F709DFFCA932
:0C011100F022BBFEFCF309DFFCA9F02289
:10000F0002008FE493A3F8E493A34003F68001F278
:10001F0008DFF48029E493A3F85407240CC8C333F2
:10002F00C4540F4420C8834004F456800146F6DFC1
:10003F00E4800B010204081020408090011DE47E33
:10004F00019360BCA3FF543F30E509541FFEE493B6
:10005F00A360010ECF54C025E060A840B8E493A37D
:10006F00FAE493A3F8E493A3C8C582C8CAC583CAA8
:10007F00F0A3C8C582C8CAC583CADFE9DEE780BE60
:0101210000DD
:00000001FF
